{
	"contracts/contract.sol": {
		"sample": {
			"abi": [
				{
					"inputs": [
						{
							"internalType": "string",
							"name": "name",
							"type": "string"
						},
						{
							"internalType": "int256",
							"name": "age",
							"type": "int256"
						},
						{
							"internalType": "enum sample.GenderPerson",
							"name": "gender",
							"type": "uint8"
						}
					],
					"stateMutability": "nonpayable",
					"type": "constructor"
				},
				{
					"inputs": [],
					"name": "getName",
					"outputs": [
						{
							"internalType": "string",
							"name": "",
							"type": "string"
						}
					],
					"stateMutability": "view",
					"type": "function"
				},
				{
					"inputs": [
						{
							"internalType": "string",
							"name": "name",
							"type": "string"
						}
					],
					"name": "setName",
					"outputs": [],
					"stateMutability": "nonpayable",
					"type": "function"
				}
			],
			"devdoc": {
				"kind": "dev",
				"methods": {},
				"version": 1
			},
			"evm": {
				"assembly": "    /* \"contracts/contract.sol\":65:541  contract sample {... */\n  mstore(0x40, 0x80)\n    /* \"contracts/contract.sol\":227:363  constructor(string memory name,int age,GenderPerson gender) {... */\n  callvalue\n  dup1\n  iszero\n  tag_1\n  jumpi\n  revert(0x00, 0x00)\ntag_1:\n  pop\n  mload(0x40)\n  sub(codesize, bytecodeSize)\n  dup1\n  bytecodeSize\n  dup4\n  codecopy\n  dup2\n  dup2\n  add\n  0x40\n  mstore\n  dup2\n  add\n  swap1\n  tag_2\n  swap2\n  swap1\n  tag_3\n  jump\t// in\ntag_2:\n    /* \"contracts/contract.sol\":305:309  name */\n  dup3\n    /* \"contracts/contract.sol\":298:302  Name */\n  0x00\n    /* \"contracts/contract.sol\":298:309  Name = name */\n  swap1\n  dup2\n  tag_6\n  swap2\n  swap1\n  tag_7\n  jump\t// in\ntag_6:\n  pop\n    /* \"contracts/contract.sol\":326:329  age */\n  dup2\n    /* \"contracts/contract.sol\":320:323  Age */\n  0x01\n    /* \"contracts/contract.sol\":320:329  Age = age */\n  dup2\n  swap1\n  sstore\n  pop\n    /* \"contracts/contract.sol\":349:355  gender */\n  dup1\n    /* \"contracts/contract.sol\":340:346  Gender */\n  0x02\n  0x00\n    /* \"contracts/contract.sol\":340:355  Gender = gender */\n  0x0100\n  exp\n  dup2\n  sload\n  dup2\n  0xff\n  mul\n  not\n  and\n  swap1\n  dup4\n  0x01\n  dup2\n  gt\n  iszero\n  tag_8\n  jumpi\n  tag_9\n  tag_10\n  jump\t// in\ntag_9:\ntag_8:\n  mul\n  or\n  swap1\n  sstore\n  pop\n    /* \"contracts/contract.sol\":227:363  constructor(string memory name,int age,GenderPerson gender) {... */\n  pop\n  pop\n  pop\n    /* \"contracts/contract.sol\":65:541  contract sample {... */\n  jump(tag_11)\n    /* \"#utility.yul\":7:82   */\ntag_12:\n    /* \"#utility.yul\":40:46   */\n  0x00\n    /* \"#utility.yul\":73:75   */\n  0x40\n    /* \"#utility.yul\":67:76   */\n  mload\n    /* \"#utility.yul\":57:76   */\n  swap1\n  pop\n    /* \"#utility.yul\":7:82   */\n  swap1\n  jump\t// out\n    /* \"#utility.yul\":88:205   */\ntag_13:\n    /* \"#utility.yul\":197:198   */\n  0x00\n    /* \"#utility.yul\":194:195   */\n  0x00\n    /* \"#utility.yul\":187:199   */\n  revert\n    /* \"#utility.yul\":211:328   */\ntag_14:\n    /* \"#utility.yul\":320:321   */\n  0x00\n    /* \"#utility.yul\":317:318   */\n  0x00\n    /* \"#utility.yul\":310:322   */\n  revert\n    /* \"#utility.yul\":334:451   */\ntag_15:\n    /* \"#utility.yul\":443:444   */\n  0x00\n    /* \"#utility.yul\":440:441   */\n  0x00\n    /* \"#utility.yul\":433:445   */\n  revert\n    /* \"#utility.yul\":457:574   */\ntag_16:\n    /* \"#utility.yul\":566:567   */\n  0x00\n    /* \"#utility.yul\":563:564   */\n  0x00\n    /* \"#utility.yul\":556:568   */\n  revert\n    /* \"#utility.yul\":580:682   */\ntag_17:\n    /* \"#utility.yul\":621:627   */\n  0x00\n    /* \"#utility.yul\":672:674   */\n  0x1f\n    /* \"#utility.yul\":668:675   */\n  not\n    /* \"#utility.yul\":663:665   */\n  0x1f\n    /* \"#utility.yul\":656:661   */\n  dup4\n    /* \"#utility.yul\":652:666   */\n  add\n    /* \"#utility.yul\":648:676   */\n  and\n    /* \"#utility.yul\":638:676   */\n  swap1\n  pop\n    /* \"#utility.yul\":580:682   */\n  swap2\n  swap1\n  pop\n  jump\t// out\n    /* \"#utility.yul\":688:868   */\ntag_18:\n    /* \"#utility.yul\":736:813   */\n  0x4e487b7100000000000000000000000000000000000000000000000000000000\n    /* \"#utility.yul\":733:734   */\n  0x00\n    /* \"#utility.yul\":726:814   */\n  mstore\n    /* \"#utility.yul\":833:837   */\n  0x41\n    /* \"#utility.yul\":830:831   */\n  0x04\n    /* \"#utility.yul\":823:838   */\n  mstore\n    /* \"#utility.yul\":857:861   */\n  0x24\n    /* \"#utility.yul\":854:855   */\n  0x00\n    /* \"#utility.yul\":847:862   */\n  revert\n    /* \"#utility.yul\":874:1155   */\ntag_19:\n    /* \"#utility.yul\":957:984   */\n  tag_58\n    /* \"#utility.yul\":979:983   */\n  dup3\n    /* \"#utility.yul\":957:984   */\n  tag_17\n  jump\t// in\ntag_58:\n    /* \"#utility.yul\":949:955   */\n  dup2\n    /* \"#utility.yul\":945:985   */\n  add\n    /* \"#utility.yul\":1087:1093   */\n  dup2\n    /* \"#utility.yul\":1075:1085   */\n  dup2\n    /* \"#utility.yul\":1072:1094   */\n  lt\n    /* \"#utility.yul\":1051:1069   */\n  0xffffffffffffffff\n    /* \"#utility.yul\":1039:1049   */\n  dup3\n    /* \"#utility.yul\":1036:1070   */\n  gt\n    /* \"#utility.yul\":1033:1095   */\n  or\n    /* \"#utility.yul\":1030:1118   */\n  iszero\n  tag_59\n  jumpi\n    /* \"#utility.yul\":1098:1116   */\n  tag_60\n  tag_18\n  jump\t// in\ntag_60:\n    /* \"#utility.yul\":1030:1118   */\ntag_59:\n    /* \"#utility.yul\":1138:1148   */\n  dup1\n    /* \"#utility.yul\":1134:1136   */\n  0x40\n    /* \"#utility.yul\":1127:1149   */\n  mstore\n    /* \"#utility.yul\":917:1155   */\n  pop\n    /* \"#utility.yul\":874:1155   */\n  pop\n  pop\n  jump\t// out\n    /* \"#utility.yul\":1161:1290   */\ntag_20:\n    /* \"#utility.yul\":1195:1201   */\n  0x00\n    /* \"#utility.yul\":1222:1242   */\n  tag_62\n  tag_12\n  jump\t// in\ntag_62:\n    /* \"#utility.yul\":1212:1242   */\n  swap1\n  pop\n    /* \"#utility.yul\":1251:1284   */\n  tag_63\n    /* \"#utility.yul\":1279:1283   */\n  dup3\n    /* \"#utility.yul\":1271:1277   */\n  dup3\n    /* \"#utility.yul\":1251:1284   */\n  tag_19\n  jump\t// in\ntag_63:\n    /* \"#utility.yul\":1161:1290   */\n  swap2\n  swap1\n  pop\n  jump\t// out\n    /* \"#utility.yul\":1296:1604   */\ntag_21:\n    /* \"#utility.yul\":1358:1362   */\n  0x00\n    /* \"#utility.yul\":1448:1466   */\n  0xffffffffffffffff\n    /* \"#utility.yul\":1440:1446   */\n  dup3\n    /* \"#utility.yul\":1437:1467   */\n  gt\n    /* \"#utility.yul\":1434:1490   */\n  iszero\n  tag_65\n  jumpi\n    /* \"#utility.yul\":1470:1488   */\n  tag_66\n  tag_18\n  jump\t// in\ntag_66:\n    /* \"#utility.yul\":1434:1490   */\ntag_65:\n    /* \"#utility.yul\":1508:1537   */\n  tag_67\n    /* \"#utility.yul\":1530:1536   */\n  dup3\n    /* \"#utility.yul\":1508:1537   */\n  tag_17\n  jump\t// in\ntag_67:\n    /* \"#utility.yul\":1500:1537   */\n  swap1\n  pop\n    /* \"#utility.yul\":1592:1596   */\n  0x20\n    /* \"#utility.yul\":1586:1590   */\n  dup2\n    /* \"#utility.yul\":1582:1597   */\n  add\n    /* \"#utility.yul\":1574:1597   */\n  swap1\n  pop\n    /* \"#utility.yul\":1296:1604   */\n  swap2\n  swap1\n  pop\n  jump\t// out\n    /* \"#utility.yul\":1610:1749   */\ntag_22:\n    /* \"#utility.yul\":1699:1705   */\n  dup3\n    /* \"#utility.yul\":1694:1697   */\n  dup2\n    /* \"#utility.yul\":1689:1692   */\n  dup4\n    /* \"#utility.yul\":1683:1706   */\n  mcopy\n    /* \"#utility.yul\":1740:1741   */\n  0x00\n    /* \"#utility.yul\":1731:1737   */\n  dup4\n    /* \"#utility.yul\":1726:1729   */\n  dup4\n    /* \"#utility.yul\":1722:1738   */\n  add\n    /* \"#utility.yul\":1715:1742   */\n  mstore\n    /* \"#utility.yul\":1610:1749   */\n  pop\n  pop\n  pop\n  jump\t// out\n    /* \"#utility.yul\":1755:2189   */\ntag_23:\n    /* \"#utility.yul\":1844:1849   */\n  0x00\n    /* \"#utility.yul\":1869:1935   */\n  tag_70\n    /* \"#utility.yul\":1885:1934   */\n  tag_71\n    /* \"#utility.yul\":1927:1933   */\n  dup5\n    /* \"#utility.yul\":1885:1934   */\n  tag_21\n  jump\t// in\ntag_71:\n    /* \"#utility.yul\":1869:1935   */\n  tag_20\n  jump\t// in\ntag_70:\n    /* \"#utility.yul\":1860:1935   */\n  swap1\n  pop\n    /* \"#utility.yul\":1958:1964   */\n  dup3\n    /* \"#utility.yul\":1951:1956   */\n  dup2\n    /* \"#utility.yul\":1944:1965   */\n  mstore\n    /* \"#utility.yul\":1996:2000   */\n  0x20\n    /* \"#utility.yul\":1989:1994   */\n  dup2\n    /* \"#utility.yul\":1985:2001   */\n  add\n    /* \"#utility.yul\":2034:2037   */\n  dup5\n    /* \"#utility.yul\":2025:2031   */\n  dup5\n    /* \"#utility.yul\":2020:2023   */\n  dup5\n    /* \"#utility.yul\":2016:2032   */\n  add\n    /* \"#utility.yul\":2013:2038   */\n  gt\n    /* \"#utility.yul\":2010:2122   */\n  iszero\n  tag_72\n  jumpi\n    /* \"#utility.yul\":2041:2120   */\n  tag_73\n  tag_16\n  jump\t// in\ntag_73:\n    /* \"#utility.yul\":2010:2122   */\ntag_72:\n    /* \"#utility.yul\":2131:2183   */\n  tag_74\n    /* \"#utility.yul\":2176:2182   */\n  dup5\n    /* \"#utility.yul\":2171:2174   */\n  dup3\n    /* \"#utility.yul\":2166:2169   */\n  dup6\n    /* \"#utility.yul\":2131:2183   */\n  tag_22\n  jump\t// in\ntag_74:\n    /* \"#utility.yul\":1850:2189   */\n  pop\n    /* \"#utility.yul\":1755:2189   */\n  swap4\n  swap3\n  pop\n  pop\n  pop\n  jump\t// out\n    /* \"#utility.yul\":2209:2564   */\ntag_24:\n    /* \"#utility.yul\":2276:2281   */\n  0x00\n    /* \"#utility.yul\":2325:2328   */\n  dup3\n    /* \"#utility.yul\":2318:2322   */\n  0x1f\n    /* \"#utility.yul\":2310:2316   */\n  dup4\n    /* \"#utility.yul\":2306:2323   */\n  add\n    /* \"#utility.yul\":2302:2329   */\n  slt\n    /* \"#utility.yul\":2292:2414   */\n  tag_76\n  jumpi\n    /* \"#utility.yul\":2333:2412   */\n  tag_77\n  tag_15\n  jump\t// in\ntag_77:\n    /* \"#utility.yul\":2292:2414   */\ntag_76:\n    /* \"#utility.yul\":2443:2449   */\n  dup2\n    /* \"#utility.yul\":2437:2450   */\n  mload\n    /* \"#utility.yul\":2468:2558   */\n  tag_78\n    /* \"#utility.yul\":2554:2557   */\n  dup5\n    /* \"#utility.yul\":2546:2552   */\n  dup3\n    /* \"#utility.yul\":2539:2543   */\n  0x20\n    /* \"#utility.yul\":2531:2537   */\n  dup7\n    /* \"#utility.yul\":2527:2544   */\n  add\n    /* \"#utility.yul\":2468:2558   */\n  tag_23\n  jump\t// in\ntag_78:\n    /* \"#utility.yul\":2459:2558   */\n  swap2\n  pop\n    /* \"#utility.yul\":2282:2564   */\n  pop\n    /* \"#utility.yul\":2209:2564   */\n  swap3\n  swap2\n  pop\n  pop\n  jump\t// out\n    /* \"#utility.yul\":2570:2646   */\ntag_25:\n    /* \"#utility.yul\":2606:2613   */\n  0x00\n    /* \"#utility.yul\":2635:2640   */\n  dup2\n    /* \"#utility.yul\":2624:2640   */\n  swap1\n  pop\n    /* \"#utility.yul\":2570:2646   */\n  swap2\n  swap1\n  pop\n  jump\t// out\n    /* \"#utility.yul\":2652:2772   */\ntag_26:\n    /* \"#utility.yul\":2724:2747   */\n  tag_81\n    /* \"#utility.yul\":2741:2746   */\n  dup2\n    /* \"#utility.yul\":2724:2747   */\n  tag_25\n  jump\t// in\ntag_81:\n    /* \"#utility.yul\":2717:2722   */\n  dup2\n    /* \"#utility.yul\":2714:2748   */\n  eq\n    /* \"#utility.yul\":2704:2766   */\n  tag_82\n  jumpi\n    /* \"#utility.yul\":2762:2763   */\n  0x00\n    /* \"#utility.yul\":2759:2760   */\n  0x00\n    /* \"#utility.yul\":2752:2764   */\n  revert\n    /* \"#utility.yul\":2704:2766   */\ntag_82:\n    /* \"#utility.yul\":2652:2772   */\n  pop\n  jump\t// out\n    /* \"#utility.yul\":2778:2919   */\ntag_27:\n    /* \"#utility.yul\":2834:2839   */\n  0x00\n    /* \"#utility.yul\":2865:2871   */\n  dup2\n    /* \"#utility.yul\":2859:2872   */\n  mload\n    /* \"#utility.yul\":2850:2872   */\n  swap1\n  pop\n    /* \"#utility.yul\":2881:2913   */\n  tag_84\n    /* \"#utility.yul\":2907:2912   */\n  dup2\n    /* \"#utility.yul\":2881:2913   */\n  tag_26\n  jump\t// in\ntag_84:\n    /* \"#utility.yul\":2778:2919   */\n  swap3\n  swap2\n  pop\n  pop\n  jump\t// out\n    /* \"#utility.yul\":2925:3038   */\ntag_28:\n    /* \"#utility.yul\":3012:3013   */\n  0x02\n    /* \"#utility.yul\":3005:3010   */\n  dup2\n    /* \"#utility.yul\":3002:3014   */\n  lt\n    /* \"#utility.yul\":2992:3032   */\n  tag_86\n  jumpi\n    /* \"#utility.yul\":3028:3029   */\n  0x00\n    /* \"#utility.yul\":3025:3026   */\n  0x00\n    /* \"#utility.yul\":3018:3030   */\n  revert\n    /* \"#utility.yul\":2992:3032   */\ntag_86:\n    /* \"#utility.yul\":2925:3038   */\n  pop\n  jump\t// out\n    /* \"#utility.yul\":3044:3215   */\ntag_29:\n    /* \"#utility.yul\":3115:3120   */\n  0x00\n    /* \"#utility.yul\":3146:3152   */\n  dup2\n    /* \"#utility.yul\":3140:3153   */\n  mload\n    /* \"#utility.yul\":3131:3153   */\n  swap1\n  pop\n    /* \"#utility.yul\":3162:3209   */\n  tag_88\n    /* \"#utility.yul\":3203:3208   */\n  dup2\n    /* \"#utility.yul\":3162:3209   */\n  tag_28\n  jump\t// in\ntag_88:\n    /* \"#utility.yul\":3044:3215   */\n  swap3\n  swap2\n  pop\n  pop\n  jump\t// out\n    /* \"#utility.yul\":3221:4083   */\ntag_3:\n    /* \"#utility.yul\":3332:3338   */\n  0x00\n    /* \"#utility.yul\":3340:3346   */\n  0x00\n    /* \"#utility.yul\":3348:3354   */\n  0x00\n    /* \"#utility.yul\":3397:3399   */\n  0x60\n    /* \"#utility.yul\":3385:3394   */\n  dup5\n    /* \"#utility.yul\":3376:3383   */\n  dup7\n    /* \"#utility.yul\":3372:3395   */\n  sub\n    /* \"#utility.yul\":3368:3400   */\n  slt\n    /* \"#utility.yul\":3365:3484   */\n  iszero\n  tag_90\n  jumpi\n    /* \"#utility.yul\":3403:3482   */\n  tag_91\n  tag_13\n  jump\t// in\ntag_91:\n    /* \"#utility.yul\":3365:3484   */\ntag_90:\n    /* \"#utility.yul\":3544:3545   */\n  0x00\n    /* \"#utility.yul\":3533:3542   */\n  dup5\n    /* \"#utility.yul\":3529:3546   */\n  add\n    /* \"#utility.yul\":3523:3547   */\n  mload\n    /* \"#utility.yul\":3574:3592   */\n  0xffffffffffffffff\n    /* \"#utility.yul\":3566:3572   */\n  dup2\n    /* \"#utility.yul\":3563:3593   */\n  gt\n    /* \"#utility.yul\":3560:3677   */\n  iszero\n  tag_92\n  jumpi\n    /* \"#utility.yul\":3596:3675   */\n  tag_93\n  tag_14\n  jump\t// in\ntag_93:\n    /* \"#utility.yul\":3560:3677   */\ntag_92:\n    /* \"#utility.yul\":3701:3775   */\n  tag_94\n    /* \"#utility.yul\":3767:3774   */\n  dup7\n    /* \"#utility.yul\":3758:3764   */\n  dup3\n    /* \"#utility.yul\":3747:3756   */\n  dup8\n    /* \"#utility.yul\":3743:3765   */\n  add\n    /* \"#utility.yul\":3701:3775   */\n  tag_24\n  jump\t// in\ntag_94:\n    /* \"#utility.yul\":3691:3775   */\n  swap4\n  pop\n    /* \"#utility.yul\":3494:3785   */\n  pop\n    /* \"#utility.yul\":3824:3826   */\n  0x20\n    /* \"#utility.yul\":3850:3913   */\n  tag_95\n    /* \"#utility.yul\":3905:3912   */\n  dup7\n    /* \"#utility.yul\":3896:3902   */\n  dup3\n    /* \"#utility.yul\":3885:3894   */\n  dup8\n    /* \"#utility.yul\":3881:3903   */\n  add\n    /* \"#utility.yul\":3850:3913   */\n  tag_27\n  jump\t// in\ntag_95:\n    /* \"#utility.yul\":3840:3913   */\n  swap3\n  pop\n    /* \"#utility.yul\":3795:3923   */\n  pop\n    /* \"#utility.yul\":3962:3964   */\n  0x40\n    /* \"#utility.yul\":3988:4066   */\n  tag_96\n    /* \"#utility.yul\":4058:4065   */\n  dup7\n    /* \"#utility.yul\":4049:4055   */\n  dup3\n    /* \"#utility.yul\":4038:4047   */\n  dup8\n    /* \"#utility.yul\":4034:4056   */\n  add\n    /* \"#utility.yul\":3988:4066   */\n  tag_29\n  jump\t// in\ntag_96:\n    /* \"#utility.yul\":3978:4066   */\n  swap2\n  pop\n    /* \"#utility.yul\":3933:4076   */\n  pop\n    /* \"#utility.yul\":3221:4083   */\n  swap3\n  pop\n  swap3\n  pop\n  swap3\n  jump\t// out\n    /* \"#utility.yul\":4089:4188   */\ntag_30:\n    /* \"#utility.yul\":4141:4147   */\n  0x00\n    /* \"#utility.yul\":4175:4180   */\n  dup2\n    /* \"#utility.yul\":4169:4181   */\n  mload\n    /* \"#utility.yul\":4159:4181   */\n  swap1\n  pop\n    /* \"#utility.yul\":4089:4188   */\n  swap2\n  swap1\n  pop\n  jump\t// out\n    /* \"#utility.yul\":4194:4374   */\ntag_31:\n    /* \"#utility.yul\":4242:4319   */\n  0x4e487b7100000000000000000000000000000000000000000000000000000000\n    /* \"#utility.yul\":4239:4240   */\n  0x00\n    /* \"#utility.yul\":4232:4320   */\n  mstore\n    /* \"#utility.yul\":4339:4343   */\n  0x22\n    /* \"#utility.yul\":4336:4337   */\n  0x04\n    /* \"#utility.yul\":4329:4344   */\n  mstore\n    /* \"#utility.yul\":4363:4367   */\n  0x24\n    /* \"#utility.yul\":4360:4361   */\n  0x00\n    /* \"#utility.yul\":4353:4368   */\n  revert\n    /* \"#utility.yul\":4380:4700   */\ntag_32:\n    /* \"#utility.yul\":4424:4430   */\n  0x00\n    /* \"#utility.yul\":4461:4462   */\n  0x02\n    /* \"#utility.yul\":4455:4459   */\n  dup3\n    /* \"#utility.yul\":4451:4463   */\n  div\n    /* \"#utility.yul\":4441:4463   */\n  swap1\n  pop\n    /* \"#utility.yul\":4508:4509   */\n  0x01\n    /* \"#utility.yul\":4502:4506   */\n  dup3\n    /* \"#utility.yul\":4498:4510   */\n  and\n    /* \"#utility.yul\":4529:4547   */\n  dup1\n    /* \"#utility.yul\":4519:4600   */\n  tag_100\n  jumpi\n    /* \"#utility.yul\":4585:4589   */\n  0x7f\n    /* \"#utility.yul\":4577:4583   */\n  dup3\n    /* \"#utility.yul\":4573:4590   */\n  and\n    /* \"#utility.yul\":4563:4590   */\n  swap2\n  pop\n    /* \"#utility.yul\":4519:4600   */\ntag_100:\n    /* \"#utility.yul\":4647:4649   */\n  0x20\n    /* \"#utility.yul\":4639:4645   */\n  dup3\n    /* \"#utility.yul\":4636:4650   */\n  lt\n    /* \"#utility.yul\":4616:4634   */\n  dup2\n    /* \"#utility.yul\":4613:4651   */\n  sub\n    /* \"#utility.yul\":4610:4694   */\n  tag_101\n  jumpi\n    /* \"#utility.yul\":4666:4684   */\n  tag_102\n  tag_31\n  jump\t// in\ntag_102:\n    /* \"#utility.yul\":4610:4694   */\ntag_101:\n    /* \"#utility.yul\":4431:4700   */\n  pop\n    /* \"#utility.yul\":4380:4700   */\n  swap2\n  swap1\n  pop\n  jump\t// out\n    /* \"#utility.yul\":4706:4847   */\ntag_33:\n    /* \"#utility.yul\":4755:4759   */\n  0x00\n    /* \"#utility.yul\":4778:4781   */\n  dup2\n    /* \"#utility.yul\":4770:4781   */\n  swap1\n  pop\n    /* \"#utility.yul\":4801:4804   */\n  dup2\n    /* \"#utility.yul\":4798:4799   */\n  0x00\n    /* \"#utility.yul\":4791:4805   */\n  mstore\n    /* \"#utility.yul\":4835:4839   */\n  0x20\n    /* \"#utility.yul\":4832:4833   */\n  0x00\n    /* \"#utility.yul\":4822:4840   */\n  keccak256\n    /* \"#utility.yul\":4814:4840   */\n  swap1\n  pop\n    /* \"#utility.yul\":4706:4847   */\n  swap2\n  swap1\n  pop\n  jump\t// out\n    /* \"#utility.yul\":4853:4946   */\ntag_34:\n    /* \"#utility.yul\":4890:4896   */\n  0x00\n    /* \"#utility.yul\":4937:4939   */\n  0x20\n    /* \"#utility.yul\":4932:4934   */\n  0x1f\n    /* \"#utility.yul\":4925:4930   */\n  dup4\n    /* \"#utility.yul\":4921:4935   */\n  add\n    /* \"#utility.yul\":4917:4940   */\n  div\n    /* \"#utility.yul\":4907:4940   */\n  swap1\n  pop\n    /* \"#utility.yul\":4853:4946   */\n  swap2\n  swap1\n  pop\n  jump\t// out\n    /* \"#utility.yul\":4952:5059   */\ntag_35:\n    /* \"#utility.yul\":4996:5004   */\n  0x00\n    /* \"#utility.yul\":5046:5051   */\n  dup3\n    /* \"#utility.yul\":5040:5044   */\n  dup3\n    /* \"#utility.yul\":5036:5052   */\n  shl\n    /* \"#utility.yul\":5015:5052   */\n  swap1\n  pop\n    /* \"#utility.yul\":4952:5059   */\n  swap3\n  swap2\n  pop\n  pop\n  jump\t// out\n    /* \"#utility.yul\":5065:5458   */\ntag_36:\n    /* \"#utility.yul\":5134:5140   */\n  0x00\n    /* \"#utility.yul\":5184:5185   */\n  0x08\n    /* \"#utility.yul\":5172:5182   */\n  dup4\n    /* \"#utility.yul\":5168:5186   */\n  mul\n    /* \"#utility.yul\":5207:5304   */\n  tag_107\n    /* \"#utility.yul\":5237:5303   */\n  0xffffffffffffffffffffffffffffffffffffffffffffffffffffffffffffffff\n    /* \"#utility.yul\":5226:5235   */\n  dup3\n    /* \"#utility.yul\":5207:5304   */\n  tag_35\n  jump\t// in\ntag_107:\n    /* \"#utility.yul\":5325:5364   */\n  tag_108\n    /* \"#utility.yul\":5355:5363   */\n  dup7\n    /* \"#utility.yul\":5344:5353   */\n  dup4\n    /* \"#utility.yul\":5325:5364   */\n  tag_35\n  jump\t// in\ntag_108:\n    /* \"#utility.yul\":5313:5364   */\n  swap6\n  pop\n    /* \"#utility.yul\":5397:5401   */\n  dup1\n    /* \"#utility.yul\":5393:5402   */\n  not\n    /* \"#utility.yul\":5386:5391   */\n  dup5\n    /* \"#utility.yul\":5382:5403   */\n  and\n    /* \"#utility.yul\":5373:5403   */\n  swap4\n  pop\n    /* \"#utility.yul\":5446:5450   */\n  dup1\n    /* \"#utility.yul\":5436:5444   */\n  dup7\n    /* \"#utility.yul\":5432:5451   */\n  and\n    /* \"#utility.yul\":5425:5430   */\n  dup5\n    /* \"#utility.yul\":5422:5452   */\n  or\n    /* \"#utility.yul\":5412:5452   */\n  swap3\n  pop\n    /* \"#utility.yul\":5141:5458   */\n  pop\n  pop\n    /* \"#utility.yul\":5065:5458   */\n  swap4\n  swap3\n  pop\n  pop\n  pop\n  jump\t// out\n    /* \"#utility.yul\":5464:5541   */\ntag_37:\n    /* \"#utility.yul\":5501:5508   */\n  0x00\n    /* \"#utility.yul\":5530:5535   */\n  dup2\n    /* \"#utility.yul\":5519:5535   */\n  swap1\n  pop\n    /* \"#utility.yul\":5464:5541   */\n  swap2\n  swap1\n  pop\n  jump\t// out\n    /* \"#utility.yul\":5547:5607   */\ntag_38:\n    /* \"#utility.yul\":5575:5578   */\n  0x00\n    /* \"#utility.yul\":5596:5601   */\n  dup2\n    /* \"#utility.yul\":5589:5601   */\n  swap1\n  pop\n    /* \"#utility.yul\":5547:5607   */\n  swap2\n  swap1\n  pop\n  jump\t// out\n    /* \"#utility.yul\":5613:5755   */\ntag_39:\n    /* \"#utility.yul\":5663:5672   */\n  0x00\n    /* \"#utility.yul\":5696:5749   */\n  tag_112\n    /* \"#utility.yul\":5714:5748   */\n  tag_113\n    /* \"#utility.yul\":5723:5747   */\n  tag_114\n    /* \"#utility.yul\":5741:5746   */\n  dup5\n    /* \"#utility.yul\":5723:5747   */\n  tag_37\n  jump\t// in\ntag_114:\n    /* \"#utility.yul\":5714:5748   */\n  tag_38\n  jump\t// in\ntag_113:\n    /* \"#utility.yul\":5696:5749   */\n  tag_37\n  jump\t// in\ntag_112:\n    /* \"#utility.yul\":5683:5749   */\n  swap1\n  pop\n    /* \"#utility.yul\":5613:5755   */\n  swap2\n  swap1\n  pop\n  jump\t// out\n    /* \"#utility.yul\":5761:5836   */\ntag_40:\n    /* \"#utility.yul\":5804:5807   */\n  0x00\n    /* \"#utility.yul\":5825:5830   */\n  dup2\n    /* \"#utility.yul\":5818:5830   */\n  swap1\n  pop\n    /* \"#utility.yul\":5761:5836   */\n  swap2\n  swap1\n  pop\n  jump\t// out\n    /* \"#utility.yul\":5842:6111   */\ntag_41:\n    /* \"#utility.yul\":5952:5991   */\n  tag_117\n    /* \"#utility.yul\":5983:5990   */\n  dup4\n    /* \"#utility.yul\":5952:5991   */\n  tag_39\n  jump\t// in\ntag_117:\n    /* \"#utility.yul\":6013:6104   */\n  tag_118\n    /* \"#utility.yul\":6062:6103   */\n  tag_119\n    /* \"#utility.yul\":6086:6102   */\n  dup3\n    /* \"#utility.yul\":6062:6103   */\n  tag_40\n  jump\t// in\ntag_119:\n    /* \"#utility.yul\":6054:6060   */\n  dup5\n    /* \"#utility.yul\":6047:6051   */\n  dup5\n    /* \"#utility.yul\":6041:6052   */\n  sload\n    /* \"#utility.yul\":6013:6104   */\n  tag_36\n  jump\t// in\ntag_118:\n    /* \"#utility.yul\":6007:6011   */\n  dup3\n    /* \"#utility.yul\":6000:6105   */\n  sstore\n    /* \"#utility.yul\":5918:6111   */\n  pop\n    /* \"#utility.yul\":5842:6111   */\n  pop\n  pop\n  pop\n  jump\t// out\n    /* \"#utility.yul\":6117:6190   */\ntag_42:\n    /* \"#utility.yul\":6162:6165   */\n  0x00\n    /* \"#utility.yul\":6183:6184   */\n  0x00\n    /* \"#utility.yul\":6176:6184   */\n  swap1\n  pop\n    /* \"#utility.yul\":6117:6190   */\n  swap1\n  jump\t// out\n    /* \"#utility.yul\":6196:6385   */\ntag_43:\n    /* \"#utility.yul\":6273:6305   */\n  tag_122\n  tag_42\n  jump\t// in\ntag_122:\n    /* \"#utility.yul\":6314:6379   */\n  tag_123\n    /* \"#utility.yul\":6372:6378   */\n  dup2\n    /* \"#utility.yul\":6364:6370   */\n  dup5\n    /* \"#utility.yul\":6358:6362   */\n  dup5\n    /* \"#utility.yul\":6314:6379   */\n  tag_41\n  jump\t// in\ntag_123:\n    /* \"#utility.yul\":6249:6385   */\n  pop\n    /* \"#utility.yul\":6196:6385   */\n  pop\n  pop\n  jump\t// out\n    /* \"#utility.yul\":6391:6577   */\ntag_44:\n    /* \"#utility.yul\":6451:6571   */\ntag_125:\n    /* \"#utility.yul\":6468:6471   */\n  dup2\n    /* \"#utility.yul\":6461:6466   */\n  dup2\n    /* \"#utility.yul\":6458:6472   */\n  lt\n    /* \"#utility.yul\":6451:6571   */\n  iszero\n  tag_127\n  jumpi\n    /* \"#utility.yul\":6522:6561   */\n  tag_128\n    /* \"#utility.yul\":6559:6560   */\n  0x00\n    /* \"#utility.yul\":6552:6557   */\n  dup3\n    /* \"#utility.yul\":6522:6561   */\n  tag_43\n  jump\t// in\ntag_128:\n    /* \"#utility.yul\":6495:6496   */\n  0x01\n    /* \"#utility.yul\":6488:6493   */\n  dup2\n    /* \"#utility.yul\":6484:6497   */\n  add\n    /* \"#utility.yul\":6475:6497   */\n  swap1\n  pop\n    /* \"#utility.yul\":6451:6571   */\n  jump(tag_125)\ntag_127:\n    /* \"#utility.yul\":6391:6577   */\n  pop\n  pop\n  jump\t// out\n    /* \"#utility.yul\":6583:7126   */\ntag_45:\n    /* \"#utility.yul\":6684:6686   */\n  0x1f\n    /* \"#utility.yul\":6679:6682   */\n  dup3\n    /* \"#utility.yul\":6676:6687   */\n  gt\n    /* \"#utility.yul\":6673:7119   */\n  iszero\n  tag_130\n  jumpi\n    /* \"#utility.yul\":6718:6756   */\n  tag_131\n    /* \"#utility.yul\":6750:6755   */\n  dup2\n    /* \"#utility.yul\":6718:6756   */\n  tag_33\n  jump\t// in\ntag_131:\n    /* \"#utility.yul\":6802:6831   */\n  tag_132\n    /* \"#utility.yul\":6820:6830   */\n  dup5\n    /* \"#utility.yul\":6802:6831   */\n  tag_34\n  jump\t// in\ntag_132:\n    /* \"#utility.yul\":6792:6800   */\n  dup2\n    /* \"#utility.yul\":6788:6832   */\n  add\n    /* \"#utility.yul\":6985:6987   */\n  0x20\n    /* \"#utility.yul\":6973:6983   */\n  dup6\n    /* \"#utility.yul\":6970:6988   */\n  lt\n    /* \"#utility.yul\":6967:7016   */\n  iszero\n  tag_133\n  jumpi\n    /* \"#utility.yul\":7006:7014   */\n  dup2\n    /* \"#utility.yul\":6991:7014   */\n  swap1\n  pop\n    /* \"#utility.yul\":6967:7016   */\ntag_133:\n    /* \"#utility.yul\":7029:7109   */\n  tag_134\n    /* \"#utility.yul\":7085:7107   */\n  tag_135\n    /* \"#utility.yul\":7103:7106   */\n  dup6\n    /* \"#utility.yul\":7085:7107   */\n  tag_34\n  jump\t// in\ntag_135:\n    /* \"#utility.yul\":7075:7083   */\n  dup4\n    /* \"#utility.yul\":7071:7108   */\n  add\n    /* \"#utility.yul\":7058:7069   */\n  dup3\n    /* \"#utility.yul\":7029:7109   */\n  tag_44\n  jump\t// in\ntag_134:\n    /* \"#utility.yul\":6688:7119   */\n  pop\n  pop\n    /* \"#utility.yul\":6673:7119   */\ntag_130:\n    /* \"#utility.yul\":6583:7126   */\n  pop\n  pop\n  pop\n  jump\t// out\n    /* \"#utility.yul\":7132:7249   */\ntag_46:\n    /* \"#utility.yul\":7186:7194   */\n  0x00\n    /* \"#utility.yul\":7236:7241   */\n  dup3\n    /* \"#utility.yul\":7230:7234   */\n  dup3\n    /* \"#utility.yul\":7226:7242   */\n  shr\n    /* \"#utility.yul\":7205:7242   */\n  swap1\n  pop\n    /* \"#utility.yul\":7132:7249   */\n  swap3\n  swap2\n  pop\n  pop\n  jump\t// out\n    /* \"#utility.yul\":7255:7424   */\ntag_47:\n    /* \"#utility.yul\":7299:7305   */\n  0x00\n    /* \"#utility.yul\":7332:7383   */\n  tag_138\n    /* \"#utility.yul\":7380:7381   */\n  0x00\n    /* \"#utility.yul\":7376:7382   */\n  not\n    /* \"#utility.yul\":7368:7373   */\n  dup5\n    /* \"#utility.yul\":7365:7366   */\n  0x08\n    /* \"#utility.yul\":7361:7374   */\n  mul\n    /* \"#utility.yul\":7332:7383   */\n  tag_46\n  jump\t// in\ntag_138:\n    /* \"#utility.yul\":7328:7384   */\n  not\n    /* \"#utility.yul\":7413:7417   */\n  dup1\n    /* \"#utility.yul\":7407:7411   */\n  dup4\n    /* \"#utility.yul\":7403:7418   */\n  and\n    /* \"#utility.yul\":7393:7418   */\n  swap2\n  pop\n    /* \"#utility.yul\":7306:7424   */\n  pop\n    /* \"#utility.yul\":7255:7424   */\n  swap3\n  swap2\n  pop\n  pop\n  jump\t// out\n    /* \"#utility.yul\":7429:7724   */\ntag_48:\n    /* \"#utility.yul\":7505:7509   */\n  0x00\n    /* \"#utility.yul\":7651:7680   */\n  tag_140\n    /* \"#utility.yul\":7676:7679   */\n  dup4\n    /* \"#utility.yul\":7670:7674   */\n  dup4\n    /* \"#utility.yul\":7651:7680   */\n  tag_47\n  jump\t// in\ntag_140:\n    /* \"#utility.yul\":7643:7680   */\n  swap2\n  pop\n    /* \"#utility.yul\":7713:7716   */\n  dup3\n    /* \"#utility.yul\":7710:7711   */\n  0x02\n    /* \"#utility.yul\":7706:7717   */\n  mul\n    /* \"#utility.yul\":7700:7704   */\n  dup3\n    /* \"#utility.yul\":7697:7718   */\n  or\n    /* \"#utility.yul\":7689:7718   */\n  swap1\n  pop\n    /* \"#utility.yul\":7429:7724   */\n  swap3\n  swap2\n  pop\n  pop\n  jump\t// out\n    /* \"#utility.yul\":7729:9124   */\ntag_7:\n    /* \"#utility.yul\":7846:7883   */\n  tag_142\n    /* \"#utility.yul\":7879:7882   */\n  dup3\n    /* \"#utility.yul\":7846:7883   */\n  tag_30\n  jump\t// in\ntag_142:\n    /* \"#utility.yul\":7948:7966   */\n  0xffffffffffffffff\n    /* \"#utility.yul\":7940:7946   */\n  dup2\n    /* \"#utility.yul\":7937:7967   */\n  gt\n    /* \"#utility.yul\":7934:7990   */\n  iszero\n  tag_143\n  jumpi\n    /* \"#utility.yul\":7970:7988   */\n  tag_144\n  tag_18\n  jump\t// in\ntag_144:\n    /* \"#utility.yul\":7934:7990   */\ntag_143:\n    /* \"#utility.yul\":8014:8052   */\n  tag_145\n    /* \"#utility.yul\":8046:8050   */\n  dup3\n    /* \"#utility.yul\":8040:8051   */\n  sload\n    /* \"#utility.yul\":8014:8052   */\n  tag_32\n  jump\t// in\ntag_145:\n    /* \"#utility.yul\":8099:8166   */\n  tag_146\n    /* \"#utility.yul\":8159:8165   */\n  dup3\n    /* \"#utility.yul\":8151:8157   */\n  dup3\n    /* \"#utility.yul\":8145:8149   */\n  dup6\n    /* \"#utility.yul\":8099:8166   */\n  tag_45\n  jump\t// in\ntag_146:\n    /* \"#utility.yul\":8193:8194   */\n  0x00\n    /* \"#utility.yul\":8217:8221   */\n  0x20\n    /* \"#utility.yul\":8204:8221   */\n  swap1\n  pop\n    /* \"#utility.yul\":8249:8251   */\n  0x1f\n    /* \"#utility.yul\":8241:8247   */\n  dup4\n    /* \"#utility.yul\":8238:8252   */\n  gt\n    /* \"#utility.yul\":8266:8267   */\n  0x01\n    /* \"#utility.yul\":8261:8879   */\n  dup2\n  eq\n  tag_148\n  jumpi\n    /* \"#utility.yul\":8923:8924   */\n  0x00\n    /* \"#utility.yul\":8940:8946   */\n  dup5\n    /* \"#utility.yul\":8937:9014   */\n  iszero\n  tag_149\n  jumpi\n    /* \"#utility.yul\":8989:8998   */\n  dup3\n    /* \"#utility.yul\":8984:8987   */\n  dup8\n    /* \"#utility.yul\":8980:8999   */\n  add\n    /* \"#utility.yul\":8974:9000   */\n  mload\n    /* \"#utility.yul\":8965:9000   */\n  swap1\n  pop\n    /* \"#utility.yul\":8937:9014   */\ntag_149:\n    /* \"#utility.yul\":9040:9107   */\n  tag_150\n    /* \"#utility.yul\":9100:9106   */\n  dup6\n    /* \"#utility.yul\":9093:9098   */\n  dup3\n    /* \"#utility.yul\":9040:9107   */\n  tag_48\n  jump\t// in\ntag_150:\n    /* \"#utility.yul\":9034:9038   */\n  dup7\n    /* \"#utility.yul\":9027:9108   */\n  sstore\n    /* \"#utility.yul\":8896:9118   */\n  pop\n    /* \"#utility.yul\":8231:9118   */\n  jump(tag_147)\n    /* \"#utility.yul\":8261:8879   */\ntag_148:\n    /* \"#utility.yul\":8313:8317   */\n  0x1f\n    /* \"#utility.yul\":8309:8318   */\n  not\n    /* \"#utility.yul\":8301:8307   */\n  dup5\n    /* \"#utility.yul\":8297:8319   */\n  and\n    /* \"#utility.yul\":8347:8384   */\n  tag_151\n    /* \"#utility.yul\":8379:8383   */\n  dup7\n    /* \"#utility.yul\":8347:8384   */\n  tag_33\n  jump\t// in\ntag_151:\n    /* \"#utility.yul\":8406:8407   */\n  0x00\n    /* \"#utility.yul\":8420:8628   */\ntag_152:\n    /* \"#utility.yul\":8434:8441   */\n  dup3\n    /* \"#utility.yul\":8431:8432   */\n  dup2\n    /* \"#utility.yul\":8428:8442   */\n  lt\n    /* \"#utility.yul\":8420:8628   */\n  iszero\n  tag_154\n  jumpi\n    /* \"#utility.yul\":8513:8522   */\n  dup5\n    /* \"#utility.yul\":8508:8511   */\n  dup10\n    /* \"#utility.yul\":8504:8523   */\n  add\n    /* \"#utility.yul\":8498:8524   */\n  mload\n    /* \"#utility.yul\":8490:8496   */\n  dup3\n    /* \"#utility.yul\":8483:8525   */\n  sstore\n    /* \"#utility.yul\":8564:8565   */\n  0x01\n    /* \"#utility.yul\":8556:8562   */\n  dup3\n    /* \"#utility.yul\":8552:8566   */\n  add\n    /* \"#utility.yul\":8542:8566   */\n  swap2\n  pop\n    /* \"#utility.yul\":8611:8613   */\n  0x20\n    /* \"#utility.yul\":8600:8609   */\n  dup6\n    /* \"#utility.yul\":8596:8614   */\n  add\n    /* \"#utility.yul\":8583:8614   */\n  swap5\n  pop\n    /* \"#utility.yul\":8457:8461   */\n  0x20\n    /* \"#utility.yul\":8454:8455   */\n  dup2\n    /* \"#utility.yul\":8450:8462   */\n  add\n    /* \"#utility.yul\":8445:8462   */\n  swap1\n  pop\n    /* \"#utility.yul\":8420:8628   */\n  jump(tag_152)\ntag_154:\n    /* \"#utility.yul\":8656:8662   */\n  dup7\n    /* \"#utility.yul\":8647:8654   */\n  dup4\n    /* \"#utility.yul\":8644:8663   */\n  lt\n    /* \"#utility.yul\":8641:8820   */\n  iszero\n  tag_155\n  jumpi\n    /* \"#utility.yul\":8714:8723   */\n  dup5\n    /* \"#utility.yul\":8709:8712   */\n  dup10\n    /* \"#utility.yul\":8705:8724   */\n  add\n    /* \"#utility.yul\":8699:8725   */\n  mload\n    /* \"#utility.yul\":8757:8805   */\n  tag_156\n    /* \"#utility.yul\":8799:8803   */\n  0x1f\n    /* \"#utility.yul\":8791:8797   */\n  dup10\n    /* \"#utility.yul\":8787:8804   */\n  and\n    /* \"#utility.yul\":8776:8785   */\n  dup3\n    /* \"#utility.yul\":8757:8805   */\n  tag_47\n  jump\t// in\ntag_156:\n    /* \"#utility.yul\":8749:8755   */\n  dup4\n    /* \"#utility.yul\":8742:8806   */\n  sstore\n    /* \"#utility.yul\":8664:8820   */\n  pop\n    /* \"#utility.yul\":8641:8820   */\ntag_155:\n    /* \"#utility.yul\":8866:8867   */\n  0x01\n    /* \"#utility.yul\":8862:8863   */\n  0x02\n    /* \"#utility.yul\":8854:8860   */\n  dup9\n    /* \"#utility.yul\":8850:8864   */\n  mul\n    /* \"#utility.yul\":8846:8868   */\n  add\n    /* \"#utility.yul\":8840:8844   */\n  dup9\n    /* \"#utility.yul\":8833:8869   */\n  sstore\n    /* \"#utility.yul\":8268:8879   */\n  pop\n  pop\n  pop\n    /* \"#utility.yul\":8231:9118   */\ntag_147:\n  pop\n    /* \"#utility.yul\":7821:9124   */\n  pop\n  pop\n  pop\n    /* \"#utility.yul\":7729:9124   */\n  pop\n  pop\n  jump\t// out\n    /* \"#utility.yul\":9130:9310   */\ntag_10:\n    /* \"#utility.yul\":9178:9255   */\n  0x4e487b7100000000000000000000000000000000000000000000000000000000\n    /* \"#utility.yul\":9175:9176   */\n  0x00\n    /* \"#utility.yul\":9168:9256   */\n  mstore\n    /* \"#utility.yul\":9275:9279   */\n  0x21\n    /* \"#utility.yul\":9272:9273   */\n  0x04\n    /* \"#utility.yul\":9265:9280   */\n  mstore\n    /* \"#utility.yul\":9299:9303   */\n  0x24\n    /* \"#utility.yul\":9296:9297   */\n  0x00\n    /* \"#utility.yul\":9289:9304   */\n  revert\n    /* \"contracts/contract.sol\":65:541  contract sample {... */\ntag_11:\n  dataSize(sub_0)\n  dup1\n  dataOffset(sub_0)\n  0x00\n  codecopy\n  0x00\n  return\nstop\n\nsub_0: assembly {\n        /* \"contracts/contract.sol\":65:541  contract sample {... */\n      mstore(0x40, 0x80)\n      callvalue\n      dup1\n      iszero\n      tag_1\n      jumpi\n      revert(0x00, 0x00)\n    tag_1:\n      pop\n      jumpi(tag_2, lt(calldatasize, 0x04))\n      shr(0xe0, calldataload(0x00))\n      dup1\n      0x17d7de7c\n      eq\n      tag_3\n      jumpi\n      dup1\n      0xc47f0027\n      eq\n      tag_4\n      jumpi\n    tag_2:\n      revert(0x00, 0x00)\n        /* \"contracts/contract.sol\":454:538  function getName() public view returns (string memory){... */\n    tag_3:\n      tag_5\n      tag_6\n      jump\t// in\n    tag_5:\n      mload(0x40)\n      tag_7\n      swap2\n      swap1\n      tag_8\n      jump\t// in\n    tag_7:\n      mload(0x40)\n      dup1\n      swap2\n      sub\n      swap1\n      return\n        /* \"contracts/contract.sol\":371:446  function setName(string memory name) public  {... */\n    tag_4:\n      tag_9\n      0x04\n      dup1\n      calldatasize\n      sub\n      dup2\n      add\n      swap1\n      tag_10\n      swap2\n      swap1\n      tag_11\n      jump\t// in\n    tag_10:\n      tag_12\n      jump\t// in\n    tag_9:\n      stop\n        /* \"contracts/contract.sol\":454:538  function getName() public view returns (string memory){... */\n    tag_6:\n        /* \"contracts/contract.sol\":494:507  string memory */\n      0x60\n        /* \"contracts/contract.sol\":526:530  Name */\n      0x00\n        /* \"contracts/contract.sol\":519:530  return Name */\n      dup1\n      sload\n      tag_14\n      swap1\n      tag_15\n      jump\t// in\n    tag_14:\n      dup1\n      0x1f\n      add\n      0x20\n      dup1\n      swap2\n      div\n      mul\n      0x20\n      add\n      mload(0x40)\n      swap1\n      dup2\n      add\n      0x40\n      mstore\n      dup1\n      swap3\n      swap2\n      swap1\n      dup2\n      dup2\n      mstore\n      0x20\n      add\n      dup3\n      dup1\n      sload\n      tag_16\n      swap1\n      tag_15\n      jump\t// in\n    tag_16:\n      dup1\n      iszero\n      tag_17\n      jumpi\n      dup1\n      0x1f\n      lt\n      tag_18\n      jumpi\n      0x0100\n      dup1\n      dup4\n      sload\n      div\n      mul\n      dup4\n      mstore\n      swap2\n      0x20\n      add\n      swap2\n      jump(tag_17)\n    tag_18:\n      dup3\n      add\n      swap2\n      swap1\n      0x00\n      mstore\n      keccak256(0x00, 0x20)\n      swap1\n    tag_19:\n      dup2\n      sload\n      dup2\n      mstore\n      swap1\n      0x01\n      add\n      swap1\n      0x20\n      add\n      dup1\n      dup4\n      gt\n      tag_19\n      jumpi\n      dup3\n      swap1\n      sub\n      0x1f\n      and\n      dup3\n      add\n      swap2\n    tag_17:\n      pop\n      pop\n      pop\n      pop\n      pop\n      swap1\n      pop\n        /* \"contracts/contract.sol\":454:538  function getName() public view returns (string memory){... */\n      swap1\n      jump\t// out\n        /* \"contracts/contract.sol\":371:446  function setName(string memory name) public  {... */\n    tag_12:\n        /* \"contracts/contract.sol\":434:438  name */\n      dup1\n        /* \"contracts/contract.sol\":427:431  Name */\n      0x00\n        /* \"contracts/contract.sol\":427:438  Name = name */\n      swap1\n      dup2\n      tag_21\n      swap2\n      swap1\n      tag_22\n      jump\t// in\n    tag_21:\n      pop\n        /* \"contracts/contract.sol\":371:446  function setName(string memory name) public  {... */\n      pop\n      jump\t// out\n        /* \"#utility.yul\":7:106   */\n    tag_23:\n        /* \"#utility.yul\":59:65   */\n      0x00\n        /* \"#utility.yul\":93:98   */\n      dup2\n        /* \"#utility.yul\":87:99   */\n      mload\n        /* \"#utility.yul\":77:99   */\n      swap1\n      pop\n        /* \"#utility.yul\":7:106   */\n      swap2\n      swap1\n      pop\n      jump\t// out\n        /* \"#utility.yul\":112:281   */\n    tag_24:\n        /* \"#utility.yul\":196:207   */\n      0x00\n        /* \"#utility.yul\":230:236   */\n      dup3\n        /* \"#utility.yul\":225:228   */\n      dup3\n        /* \"#utility.yul\":218:237   */\n      mstore\n        /* \"#utility.yul\":270:274   */\n      0x20\n        /* \"#utility.yul\":265:268   */\n      dup3\n        /* \"#utility.yul\":261:275   */\n      add\n        /* \"#utility.yul\":246:275   */\n      swap1\n      pop\n        /* \"#utility.yul\":112:281   */\n      swap3\n      swap2\n      pop\n      pop\n      jump\t// out\n        /* \"#utility.yul\":287:426   */\n    tag_25:\n        /* \"#utility.yul\":376:382   */\n      dup3\n        /* \"#utility.yul\":371:374   */\n      dup2\n        /* \"#utility.yul\":366:369   */\n      dup4\n        /* \"#utility.yul\":360:383   */\n      mcopy\n        /* \"#utility.yul\":417:418   */\n      0x00\n        /* \"#utility.yul\":408:414   */\n      dup4\n        /* \"#utility.yul\":403:406   */\n      dup4\n        /* \"#utility.yul\":399:415   */\n      add\n        /* \"#utility.yul\":392:419   */\n      mstore\n        /* \"#utility.yul\":287:426   */\n      pop\n      pop\n      pop\n      jump\t// out\n        /* \"#utility.yul\":432:534   */\n    tag_26:\n        /* \"#utility.yul\":473:479   */\n      0x00\n        /* \"#utility.yul\":524:526   */\n      0x1f\n        /* \"#utility.yul\":520:527   */\n      not\n        /* \"#utility.yul\":515:517   */\n      0x1f\n        /* \"#utility.yul\":508:513   */\n      dup4\n        /* \"#utility.yul\":504:518   */\n      add\n        /* \"#utility.yul\":500:528   */\n      and\n        /* \"#utility.yul\":490:528   */\n      swap1\n      pop\n        /* \"#utility.yul\":432:534   */\n      swap2\n      swap1\n      pop\n      jump\t// out\n        /* \"#utility.yul\":540:917   */\n    tag_27:\n        /* \"#utility.yul\":628:631   */\n      0x00\n        /* \"#utility.yul\":656:695   */\n      tag_63\n        /* \"#utility.yul\":689:694   */\n      dup3\n        /* \"#utility.yul\":656:695   */\n      tag_23\n      jump\t// in\n    tag_63:\n        /* \"#utility.yul\":711:782   */\n      tag_64\n        /* \"#utility.yul\":775:781   */\n      dup2\n        /* \"#utility.yul\":770:773   */\n      dup6\n        /* \"#utility.yul\":711:782   */\n      tag_24\n      jump\t// in\n    tag_64:\n        /* \"#utility.yul\":704:782   */\n      swap4\n      pop\n        /* \"#utility.yul\":791:856   */\n      tag_65\n        /* \"#utility.yul\":849:855   */\n      dup2\n        /* \"#utility.yul\":844:847   */\n      dup6\n        /* \"#utility.yul\":837:841   */\n      0x20\n        /* \"#utility.yul\":830:835   */\n      dup7\n        /* \"#utility.yul\":826:842   */\n      add\n        /* \"#utility.yul\":791:856   */\n      tag_25\n      jump\t// in\n    tag_65:\n        /* \"#utility.yul\":881:910   */\n      tag_66\n        /* \"#utility.yul\":903:909   */\n      dup2\n        /* \"#utility.yul\":881:910   */\n      tag_26\n      jump\t// in\n    tag_66:\n        /* \"#utility.yul\":876:879   */\n      dup5\n        /* \"#utility.yul\":872:911   */\n      add\n        /* \"#utility.yul\":865:911   */\n      swap2\n      pop\n        /* \"#utility.yul\":632:917   */\n      pop\n        /* \"#utility.yul\":540:917   */\n      swap3\n      swap2\n      pop\n      pop\n      jump\t// out\n        /* \"#utility.yul\":923:1236   */\n    tag_8:\n        /* \"#utility.yul\":1036:1040   */\n      0x00\n        /* \"#utility.yul\":1074:1076   */\n      0x20\n        /* \"#utility.yul\":1063:1072   */\n      dup3\n        /* \"#utility.yul\":1059:1077   */\n      add\n        /* \"#utility.yul\":1051:1077   */\n      swap1\n      pop\n        /* \"#utility.yul\":1123:1132   */\n      dup2\n        /* \"#utility.yul\":1117:1121   */\n      dup2\n        /* \"#utility.yul\":1113:1133   */\n      sub\n        /* \"#utility.yul\":1109:1110   */\n      0x00\n        /* \"#utility.yul\":1098:1107   */\n      dup4\n        /* \"#utility.yul\":1094:1111   */\n      add\n        /* \"#utility.yul\":1087:1134   */\n      mstore\n        /* \"#utility.yul\":1151:1229   */\n      tag_68\n        /* \"#utility.yul\":1224:1228   */\n      dup2\n        /* \"#utility.yul\":1215:1221   */\n      dup5\n        /* \"#utility.yul\":1151:1229   */\n      tag_27\n      jump\t// in\n    tag_68:\n        /* \"#utility.yul\":1143:1229   */\n      swap1\n      pop\n        /* \"#utility.yul\":923:1236   */\n      swap3\n      swap2\n      pop\n      pop\n      jump\t// out\n        /* \"#utility.yul\":1242:1317   */\n    tag_28:\n        /* \"#utility.yul\":1275:1281   */\n      0x00\n        /* \"#utility.yul\":1308:1310   */\n      0x40\n        /* \"#utility.yul\":1302:1311   */\n      mload\n        /* \"#utility.yul\":1292:1311   */\n      swap1\n      pop\n        /* \"#utility.yul\":1242:1317   */\n      swap1\n      jump\t// out\n        /* \"#utility.yul\":1323:1440   */\n    tag_29:\n        /* \"#utility.yul\":1432:1433   */\n      0x00\n        /* \"#utility.yul\":1429:1430   */\n      0x00\n        /* \"#utility.yul\":1422:1434   */\n      revert\n        /* \"#utility.yul\":1446:1563   */\n    tag_30:\n        /* \"#utility.yul\":1555:1556   */\n      0x00\n        /* \"#utility.yul\":1552:1553   */\n      0x00\n        /* \"#utility.yul\":1545:1557   */\n      revert\n        /* \"#utility.yul\":1569:1686   */\n    tag_31:\n        /* \"#utility.yul\":1678:1679   */\n      0x00\n        /* \"#utility.yul\":1675:1676   */\n      0x00\n        /* \"#utility.yul\":1668:1680   */\n      revert\n        /* \"#utility.yul\":1692:1809   */\n    tag_32:\n        /* \"#utility.yul\":1801:1802   */\n      0x00\n        /* \"#utility.yul\":1798:1799   */\n      0x00\n        /* \"#utility.yul\":1791:1803   */\n      revert\n        /* \"#utility.yul\":1815:1995   */\n    tag_33:\n        /* \"#utility.yul\":1863:1940   */\n      0x4e487b7100000000000000000000000000000000000000000000000000000000\n        /* \"#utility.yul\":1860:1861   */\n      0x00\n        /* \"#utility.yul\":1853:1941   */\n      mstore\n        /* \"#utility.yul\":1960:1964   */\n      0x41\n        /* \"#utility.yul\":1957:1958   */\n      0x04\n        /* \"#utility.yul\":1950:1965   */\n      mstore\n        /* \"#utility.yul\":1984:1988   */\n      0x24\n        /* \"#utility.yul\":1981:1982   */\n      0x00\n        /* \"#utility.yul\":1974:1989   */\n      revert\n        /* \"#utility.yul\":2001:2282   */\n    tag_34:\n        /* \"#utility.yul\":2084:2111   */\n      tag_76\n        /* \"#utility.yul\":2106:2110   */\n      dup3\n        /* \"#utility.yul\":2084:2111   */\n      tag_26\n      jump\t// in\n    tag_76:\n        /* \"#utility.yul\":2076:2082   */\n      dup2\n        /* \"#utility.yul\":2072:2112   */\n      add\n        /* \"#utility.yul\":2214:2220   */\n      dup2\n        /* \"#utility.yul\":2202:2212   */\n      dup2\n        /* \"#utility.yul\":2199:2221   */\n      lt\n        /* \"#utility.yul\":2178:2196   */\n      0xffffffffffffffff\n        /* \"#utility.yul\":2166:2176   */\n      dup3\n        /* \"#utility.yul\":2163:2197   */\n      gt\n        /* \"#utility.yul\":2160:2222   */\n      or\n        /* \"#utility.yul\":2157:2245   */\n      iszero\n      tag_77\n      jumpi\n        /* \"#utility.yul\":2225:2243   */\n      tag_78\n      tag_33\n      jump\t// in\n    tag_78:\n        /* \"#utility.yul\":2157:2245   */\n    tag_77:\n        /* \"#utility.yul\":2265:2275   */\n      dup1\n        /* \"#utility.yul\":2261:2263   */\n      0x40\n        /* \"#utility.yul\":2254:2276   */\n      mstore\n        /* \"#utility.yul\":2044:2282   */\n      pop\n        /* \"#utility.yul\":2001:2282   */\n      pop\n      pop\n      jump\t// out\n        /* \"#utility.yul\":2288:2417   */\n    tag_35:\n        /* \"#utility.yul\":2322:2328   */\n      0x00\n        /* \"#utility.yul\":2349:2369   */\n      tag_80\n      tag_28\n      jump\t// in\n    tag_80:\n        /* \"#utility.yul\":2339:2369   */\n      swap1\n      pop\n        /* \"#utility.yul\":2378:2411   */\n      tag_81\n        /* \"#utility.yul\":2406:2410   */\n      dup3\n        /* \"#utility.yul\":2398:2404   */\n      dup3\n        /* \"#utility.yul\":2378:2411   */\n      tag_34\n      jump\t// in\n    tag_81:\n        /* \"#utility.yul\":2288:2417   */\n      swap2\n      swap1\n      pop\n      jump\t// out\n        /* \"#utility.yul\":2423:2731   */\n    tag_36:\n        /* \"#utility.yul\":2485:2489   */\n      0x00\n        /* \"#utility.yul\":2575:2593   */\n      0xffffffffffffffff\n        /* \"#utility.yul\":2567:2573   */\n      dup3\n        /* \"#utility.yul\":2564:2594   */\n      gt\n        /* \"#utility.yul\":2561:2617   */\n      iszero\n      tag_83\n      jumpi\n        /* \"#utility.yul\":2597:2615   */\n      tag_84\n      tag_33\n      jump\t// in\n    tag_84:\n        /* \"#utility.yul\":2561:2617   */\n    tag_83:\n        /* \"#utility.yul\":2635:2664   */\n      tag_85\n        /* \"#utility.yul\":2657:2663   */\n      dup3\n        /* \"#utility.yul\":2635:2664   */\n      tag_26\n      jump\t// in\n    tag_85:\n        /* \"#utility.yul\":2627:2664   */\n      swap1\n      pop\n        /* \"#utility.yul\":2719:2723   */\n      0x20\n        /* \"#utility.yul\":2713:2717   */\n      dup2\n        /* \"#utility.yul\":2709:2724   */\n      add\n        /* \"#utility.yul\":2701:2724   */\n      swap1\n      pop\n        /* \"#utility.yul\":2423:2731   */\n      swap2\n      swap1\n      pop\n      jump\t// out\n        /* \"#utility.yul\":2737:2885   */\n    tag_37:\n        /* \"#utility.yul\":2835:2841   */\n      dup3\n        /* \"#utility.yul\":2830:2833   */\n      dup2\n        /* \"#utility.yul\":2825:2828   */\n      dup4\n        /* \"#utility.yul\":2812:2842   */\n      calldatacopy\n        /* \"#utility.yul\":2876:2877   */\n      0x00\n        /* \"#utility.yul\":2867:2873   */\n      dup4\n        /* \"#utility.yul\":2862:2865   */\n      dup4\n        /* \"#utility.yul\":2858:2874   */\n      add\n        /* \"#utility.yul\":2851:2878   */\n      mstore\n        /* \"#utility.yul\":2737:2885   */\n      pop\n      pop\n      pop\n      jump\t// out\n        /* \"#utility.yul\":2891:3316   */\n    tag_38:\n        /* \"#utility.yul\":2969:2974   */\n      0x00\n        /* \"#utility.yul\":2994:3060   */\n      tag_88\n        /* \"#utility.yul\":3010:3059   */\n      tag_89\n        /* \"#utility.yul\":3052:3058   */\n      dup5\n        /* \"#utility.yul\":3010:3059   */\n      tag_36\n      jump\t// in\n    tag_89:\n        /* \"#utility.yul\":2994:3060   */\n      tag_35\n      jump\t// in\n    tag_88:\n        /* \"#utility.yul\":2985:3060   */\n      swap1\n      pop\n        /* \"#utility.yul\":3083:3089   */\n      dup3\n        /* \"#utility.yul\":3076:3081   */\n      dup2\n        /* \"#utility.yul\":3069:3090   */\n      mstore\n        /* \"#utility.yul\":3121:3125   */\n      0x20\n        /* \"#utility.yul\":3114:3119   */\n      dup2\n        /* \"#utility.yul\":3110:3126   */\n      add\n        /* \"#utility.yul\":3159:3162   */\n      dup5\n        /* \"#utility.yul\":3150:3156   */\n      dup5\n        /* \"#utility.yul\":3145:3148   */\n      dup5\n        /* \"#utility.yul\":3141:3157   */\n      add\n        /* \"#utility.yul\":3138:3163   */\n      gt\n        /* \"#utility.yul\":3135:3247   */\n      iszero\n      tag_90\n      jumpi\n        /* \"#utility.yul\":3166:3245   */\n      tag_91\n      tag_32\n      jump\t// in\n    tag_91:\n        /* \"#utility.yul\":3135:3247   */\n    tag_90:\n        /* \"#utility.yul\":3256:3310   */\n      tag_92\n        /* \"#utility.yul\":3303:3309   */\n      dup5\n        /* \"#utility.yul\":3298:3301   */\n      dup3\n        /* \"#utility.yul\":3293:3296   */\n      dup6\n        /* \"#utility.yul\":3256:3310   */\n      tag_37\n      jump\t// in\n    tag_92:\n        /* \"#utility.yul\":2975:3316   */\n      pop\n        /* \"#utility.yul\":2891:3316   */\n      swap4\n      swap3\n      pop\n      pop\n      pop\n      jump\t// out\n        /* \"#utility.yul\":3336:3676   */\n    tag_39:\n        /* \"#utility.yul\":3392:3397   */\n      0x00\n        /* \"#utility.yul\":3441:3444   */\n      dup3\n        /* \"#utility.yul\":3434:3438   */\n      0x1f\n        /* \"#utility.yul\":3426:3432   */\n      dup4\n        /* \"#utility.yul\":3422:3439   */\n      add\n        /* \"#utility.yul\":3418:3445   */\n      slt\n        /* \"#utility.yul\":3408:3530   */\n      tag_94\n      jumpi\n        /* \"#utility.yul\":3449:3528   */\n      tag_95\n      tag_31\n      jump\t// in\n    tag_95:\n        /* \"#utility.yul\":3408:3530   */\n    tag_94:\n        /* \"#utility.yul\":3566:3572   */\n      dup2\n        /* \"#utility.yul\":3553:3573   */\n      calldataload\n        /* \"#utility.yul\":3591:3670   */\n      tag_96\n        /* \"#utility.yul\":3666:3669   */\n      dup5\n        /* \"#utility.yul\":3658:3664   */\n      dup3\n        /* \"#utility.yul\":3651:3655   */\n      0x20\n        /* \"#utility.yul\":3643:3649   */\n      dup7\n        /* \"#utility.yul\":3639:3656   */\n      add\n        /* \"#utility.yul\":3591:3670   */\n      tag_38\n      jump\t// in\n    tag_96:\n        /* \"#utility.yul\":3582:3670   */\n      swap2\n      pop\n        /* \"#utility.yul\":3398:3676   */\n      pop\n        /* \"#utility.yul\":3336:3676   */\n      swap3\n      swap2\n      pop\n      pop\n      jump\t// out\n        /* \"#utility.yul\":3682:4191   */\n    tag_11:\n        /* \"#utility.yul\":3751:3757   */\n      0x00\n        /* \"#utility.yul\":3800:3802   */\n      0x20\n        /* \"#utility.yul\":3788:3797   */\n      dup3\n        /* \"#utility.yul\":3779:3786   */\n      dup5\n        /* \"#utility.yul\":3775:3798   */\n      sub\n        /* \"#utility.yul\":3771:3803   */\n      slt\n        /* \"#utility.yul\":3768:3887   */\n      iszero\n      tag_98\n      jumpi\n        /* \"#utility.yul\":3806:3885   */\n      tag_99\n      tag_29\n      jump\t// in\n    tag_99:\n        /* \"#utility.yul\":3768:3887   */\n    tag_98:\n        /* \"#utility.yul\":3954:3955   */\n      0x00\n        /* \"#utility.yul\":3943:3952   */\n      dup3\n        /* \"#utility.yul\":3939:3956   */\n      add\n        /* \"#utility.yul\":3926:3957   */\n      calldataload\n        /* \"#utility.yul\":3984:4002   */\n      0xffffffffffffffff\n        /* \"#utility.yul\":3976:3982   */\n      dup2\n        /* \"#utility.yul\":3973:4003   */\n      gt\n        /* \"#utility.yul\":3970:4087   */\n      iszero\n      tag_100\n      jumpi\n        /* \"#utility.yul\":4006:4085   */\n      tag_101\n      tag_30\n      jump\t// in\n    tag_101:\n        /* \"#utility.yul\":3970:4087   */\n    tag_100:\n        /* \"#utility.yul\":4111:4174   */\n      tag_102\n        /* \"#utility.yul\":4166:4173   */\n      dup5\n        /* \"#utility.yul\":4157:4163   */\n      dup3\n        /* \"#utility.yul\":4146:4155   */\n      dup6\n        /* \"#utility.yul\":4142:4164   */\n      add\n        /* \"#utility.yul\":4111:4174   */\n      tag_39\n      jump\t// in\n    tag_102:\n        /* \"#utility.yul\":4101:4174   */\n      swap2\n      pop\n        /* \"#utility.yul\":3897:4184   */\n      pop\n        /* \"#utility.yul\":3682:4191   */\n      swap3\n      swap2\n      pop\n      pop\n      jump\t// out\n        /* \"#utility.yul\":4197:4377   */\n    tag_40:\n        /* \"#utility.yul\":4245:4322   */\n      0x4e487b7100000000000000000000000000000000000000000000000000000000\n        /* \"#utility.yul\":4242:4243   */\n      0x00\n        /* \"#utility.yul\":4235:4323   */\n      mstore\n        /* \"#utility.yul\":4342:4346   */\n      0x22\n        /* \"#utility.yul\":4339:4340   */\n      0x04\n        /* \"#utility.yul\":4332:4347   */\n      mstore\n        /* \"#utility.yul\":4366:4370   */\n      0x24\n        /* \"#utility.yul\":4363:4364   */\n      0x00\n        /* \"#utility.yul\":4356:4371   */\n      revert\n        /* \"#utility.yul\":4383:4703   */\n    tag_15:\n        /* \"#utility.yul\":4427:4433   */\n      0x00\n        /* \"#utility.yul\":4464:4465   */\n      0x02\n        /* \"#utility.yul\":4458:4462   */\n      dup3\n        /* \"#utility.yul\":4454:4466   */\n      div\n        /* \"#utility.yul\":4444:4466   */\n      swap1\n      pop\n        /* \"#utility.yul\":4511:4512   */\n      0x01\n        /* \"#utility.yul\":4505:4509   */\n      dup3\n        /* \"#utility.yul\":4501:4513   */\n      and\n        /* \"#utility.yul\":4532:4550   */\n      dup1\n        /* \"#utility.yul\":4522:4603   */\n      tag_105\n      jumpi\n        /* \"#utility.yul\":4588:4592   */\n      0x7f\n        /* \"#utility.yul\":4580:4586   */\n      dup3\n        /* \"#utility.yul\":4576:4593   */\n      and\n        /* \"#utility.yul\":4566:4593   */\n      swap2\n      pop\n        /* \"#utility.yul\":4522:4603   */\n    tag_105:\n        /* \"#utility.yul\":4650:4652   */\n      0x20\n        /* \"#utility.yul\":4642:4648   */\n      dup3\n        /* \"#utility.yul\":4639:4653   */\n      lt\n        /* \"#utility.yul\":4619:4637   */\n      dup2\n        /* \"#utility.yul\":4616:4654   */\n      sub\n        /* \"#utility.yul\":4613:4697   */\n      tag_106\n      jumpi\n        /* \"#utility.yul\":4669:4687   */\n      tag_107\n      tag_40\n      jump\t// in\n    tag_107:\n        /* \"#utility.yul\":4613:4697   */\n    tag_106:\n        /* \"#utility.yul\":4434:4703   */\n      pop\n        /* \"#utility.yul\":4383:4703   */\n      swap2\n      swap1\n      pop\n      jump\t// out\n        /* \"#utility.yul\":4709:4850   */\n    tag_41:\n        /* \"#utility.yul\":4758:4762   */\n      0x00\n        /* \"#utility.yul\":4781:4784   */\n      dup2\n        /* \"#utility.yul\":4773:4784   */\n      swap1\n      pop\n        /* \"#utility.yul\":4804:4807   */\n      dup2\n        /* \"#utility.yul\":4801:4802   */\n      0x00\n        /* \"#utility.yul\":4794:4808   */\n      mstore\n        /* \"#utility.yul\":4838:4842   */\n      0x20\n        /* \"#utility.yul\":4835:4836   */\n      0x00\n        /* \"#utility.yul\":4825:4843   */\n      keccak256\n        /* \"#utility.yul\":4817:4843   */\n      swap1\n      pop\n        /* \"#utility.yul\":4709:4850   */\n      swap2\n      swap1\n      pop\n      jump\t// out\n        /* \"#utility.yul\":4856:4949   */\n    tag_42:\n        /* \"#utility.yul\":4893:4899   */\n      0x00\n        /* \"#utility.yul\":4940:4942   */\n      0x20\n        /* \"#utility.yul\":4935:4937   */\n      0x1f\n        /* \"#utility.yul\":4928:4933   */\n      dup4\n        /* \"#utility.yul\":4924:4938   */\n      add\n        /* \"#utility.yul\":4920:4943   */\n      div\n        /* \"#utility.yul\":4910:4943   */\n      swap1\n      pop\n        /* \"#utility.yul\":4856:4949   */\n      swap2\n      swap1\n      pop\n      jump\t// out\n        /* \"#utility.yul\":4955:5062   */\n    tag_43:\n        /* \"#utility.yul\":4999:5007   */\n      0x00\n        /* \"#utility.yul\":5049:5054   */\n      dup3\n        /* \"#utility.yul\":5043:5047   */\n      dup3\n        /* \"#utility.yul\":5039:5055   */\n      shl\n        /* \"#utility.yul\":5018:5055   */\n      swap1\n      pop\n        /* \"#utility.yul\":4955:5062   */\n      swap3\n      swap2\n      pop\n      pop\n      jump\t// out\n        /* \"#utility.yul\":5068:5461   */\n    tag_44:\n        /* \"#utility.yul\":5137:5143   */\n      0x00\n        /* \"#utility.yul\":5187:5188   */\n      0x08\n        /* \"#utility.yul\":5175:5185   */\n      dup4\n        /* \"#utility.yul\":5171:5189   */\n      mul\n        /* \"#utility.yul\":5210:5307   */\n      tag_112\n        /* \"#utility.yul\":5240:5306   */\n      0xffffffffffffffffffffffffffffffffffffffffffffffffffffffffffffffff\n        /* \"#utility.yul\":5229:5238   */\n      dup3\n        /* \"#utility.yul\":5210:5307   */\n      tag_43\n      jump\t// in\n    tag_112:\n        /* \"#utility.yul\":5328:5367   */\n      tag_113\n        /* \"#utility.yul\":5358:5366   */\n      dup7\n        /* \"#utility.yul\":5347:5356   */\n      dup4\n        /* \"#utility.yul\":5328:5367   */\n      tag_43\n      jump\t// in\n    tag_113:\n        /* \"#utility.yul\":5316:5367   */\n      swap6\n      pop\n        /* \"#utility.yul\":5400:5404   */\n      dup1\n        /* \"#utility.yul\":5396:5405   */\n      not\n        /* \"#utility.yul\":5389:5394   */\n      dup5\n        /* \"#utility.yul\":5385:5406   */\n      and\n        /* \"#utility.yul\":5376:5406   */\n      swap4\n      pop\n        /* \"#utility.yul\":5449:5453   */\n      dup1\n        /* \"#utility.yul\":5439:5447   */\n      dup7\n        /* \"#utility.yul\":5435:5454   */\n      and\n        /* \"#utility.yul\":5428:5433   */\n      dup5\n        /* \"#utility.yul\":5425:5455   */\n      or\n        /* \"#utility.yul\":5415:5455   */\n      swap3\n      pop\n        /* \"#utility.yul\":5144:5461   */\n      pop\n      pop\n        /* \"#utility.yul\":5068:5461   */\n      swap4\n      swap3\n      pop\n      pop\n      pop\n      jump\t// out\n        /* \"#utility.yul\":5467:5544   */\n    tag_45:\n        /* \"#utility.yul\":5504:5511   */\n      0x00\n        /* \"#utility.yul\":5533:5538   */\n      dup2\n        /* \"#utility.yul\":5522:5538   */\n      swap1\n      pop\n        /* \"#utility.yul\":5467:5544   */\n      swap2\n      swap1\n      pop\n      jump\t// out\n        /* \"#utility.yul\":5550:5610   */\n    tag_46:\n        /* \"#utility.yul\":5578:5581   */\n      0x00\n        /* \"#utility.yul\":5599:5604   */\n      dup2\n        /* \"#utility.yul\":5592:5604   */\n      swap1\n      pop\n        /* \"#utility.yul\":5550:5610   */\n      swap2\n      swap1\n      pop\n      jump\t// out\n        /* \"#utility.yul\":5616:5758   */\n    tag_47:\n        /* \"#utility.yul\":5666:5675   */\n      0x00\n        /* \"#utility.yul\":5699:5752   */\n      tag_117\n        /* \"#utility.yul\":5717:5751   */\n      tag_118\n        /* \"#utility.yul\":5726:5750   */\n      tag_119\n        /* \"#utility.yul\":5744:5749   */\n      dup5\n        /* \"#utility.yul\":5726:5750   */\n      tag_45\n      jump\t// in\n    tag_119:\n        /* \"#utility.yul\":5717:5751   */\n      tag_46\n      jump\t// in\n    tag_118:\n        /* \"#utility.yul\":5699:5752   */\n      tag_45\n      jump\t// in\n    tag_117:\n        /* \"#utility.yul\":5686:5752   */\n      swap1\n      pop\n        /* \"#utility.yul\":5616:5758   */\n      swap2\n      swap1\n      pop\n      jump\t// out\n        /* \"#utility.yul\":5764:5839   */\n    tag_48:\n        /* \"#utility.yul\":5807:5810   */\n      0x00\n        /* \"#utility.yul\":5828:5833   */\n      dup2\n        /* \"#utility.yul\":5821:5833   */\n      swap1\n      pop\n        /* \"#utility.yul\":5764:5839   */\n      swap2\n      swap1\n      pop\n      jump\t// out\n        /* \"#utility.yul\":5845:6114   */\n    tag_49:\n        /* \"#utility.yul\":5955:5994   */\n      tag_122\n        /* \"#utility.yul\":5986:5993   */\n      dup4\n        /* \"#utility.yul\":5955:5994   */\n      tag_47\n      jump\t// in\n    tag_122:\n        /* \"#utility.yul\":6016:6107   */\n      tag_123\n        /* \"#utility.yul\":6065:6106   */\n      tag_124\n        /* \"#utility.yul\":6089:6105   */\n      dup3\n        /* \"#utility.yul\":6065:6106   */\n      tag_48\n      jump\t// in\n    tag_124:\n        /* \"#utility.yul\":6057:6063   */\n      dup5\n        /* \"#utility.yul\":6050:6054   */\n      dup5\n        /* \"#utility.yul\":6044:6055   */\n      sload\n        /* \"#utility.yul\":6016:6107   */\n      tag_44\n      jump\t// in\n    tag_123:\n        /* \"#utility.yul\":6010:6014   */\n      dup3\n        /* \"#utility.yul\":6003:6108   */\n      sstore\n        /* \"#utility.yul\":5921:6114   */\n      pop\n        /* \"#utility.yul\":5845:6114   */\n      pop\n      pop\n      pop\n      jump\t// out\n        /* \"#utility.yul\":6120:6193   */\n    tag_50:\n        /* \"#utility.yul\":6165:6168   */\n      0x00\n        /* \"#utility.yul\":6186:6187   */\n      0x00\n        /* \"#utility.yul\":6179:6187   */\n      swap1\n      pop\n        /* \"#utility.yul\":6120:6193   */\n      swap1\n      jump\t// out\n        /* \"#utility.yul\":6199:6388   */\n    tag_51:\n        /* \"#utility.yul\":6276:6308   */\n      tag_127\n      tag_50\n      jump\t// in\n    tag_127:\n        /* \"#utility.yul\":6317:6382   */\n      tag_128\n        /* \"#utility.yul\":6375:6381   */\n      dup2\n        /* \"#utility.yul\":6367:6373   */\n      dup5\n        /* \"#utility.yul\":6361:6365   */\n      dup5\n        /* \"#utility.yul\":6317:6382   */\n      tag_49\n      jump\t// in\n    tag_128:\n        /* \"#utility.yul\":6252:6388   */\n      pop\n        /* \"#utility.yul\":6199:6388   */\n      pop\n      pop\n      jump\t// out\n        /* \"#utility.yul\":6394:6580   */\n    tag_52:\n        /* \"#utility.yul\":6454:6574   */\n    tag_130:\n        /* \"#utility.yul\":6471:6474   */\n      dup2\n        /* \"#utility.yul\":6464:6469   */\n      dup2\n        /* \"#utility.yul\":6461:6475   */\n      lt\n        /* \"#utility.yul\":6454:6574   */\n      iszero\n      tag_132\n      jumpi\n        /* \"#utility.yul\":6525:6564   */\n      tag_133\n        /* \"#utility.yul\":6562:6563   */\n      0x00\n        /* \"#utility.yul\":6555:6560   */\n      dup3\n        /* \"#utility.yul\":6525:6564   */\n      tag_51\n      jump\t// in\n    tag_133:\n        /* \"#utility.yul\":6498:6499   */\n      0x01\n        /* \"#utility.yul\":6491:6496   */\n      dup2\n        /* \"#utility.yul\":6487:6500   */\n      add\n        /* \"#utility.yul\":6478:6500   */\n      swap1\n      pop\n        /* \"#utility.yul\":6454:6574   */\n      jump(tag_130)\n    tag_132:\n        /* \"#utility.yul\":6394:6580   */\n      pop\n      pop\n      jump\t// out\n        /* \"#utility.yul\":6586:7129   */\n    tag_53:\n        /* \"#utility.yul\":6687:6689   */\n      0x1f\n        /* \"#utility.yul\":6682:6685   */\n      dup3\n        /* \"#utility.yul\":6679:6690   */\n      gt\n        /* \"#utility.yul\":6676:7122   */\n      iszero\n      tag_135\n      jumpi\n        /* \"#utility.yul\":6721:6759   */\n      tag_136\n        /* \"#utility.yul\":6753:6758   */\n      dup2\n        /* \"#utility.yul\":6721:6759   */\n      tag_41\n      jump\t// in\n    tag_136:\n        /* \"#utility.yul\":6805:6834   */\n      tag_137\n        /* \"#utility.yul\":6823:6833   */\n      dup5\n        /* \"#utility.yul\":6805:6834   */\n      tag_42\n      jump\t// in\n    tag_137:\n        /* \"#utility.yul\":6795:6803   */\n      dup2\n        /* \"#utility.yul\":6791:6835   */\n      add\n        /* \"#utility.yul\":6988:6990   */\n      0x20\n        /* \"#utility.yul\":6976:6986   */\n      dup6\n        /* \"#utility.yul\":6973:6991   */\n      lt\n        /* \"#utility.yul\":6970:7019   */\n      iszero\n      tag_138\n      jumpi\n        /* \"#utility.yul\":7009:7017   */\n      dup2\n        /* \"#utility.yul\":6994:7017   */\n      swap1\n      pop\n        /* \"#utility.yul\":6970:7019   */\n    tag_138:\n        /* \"#utility.yul\":7032:7112   */\n      tag_139\n        /* \"#utility.yul\":7088:7110   */\n      tag_140\n        /* \"#utility.yul\":7106:7109   */\n      dup6\n        /* \"#utility.yul\":7088:7110   */\n      tag_42\n      jump\t// in\n    tag_140:\n        /* \"#utility.yul\":7078:7086   */\n      dup4\n        /* \"#utility.yul\":7074:7111   */\n      add\n        /* \"#utility.yul\":7061:7072   */\n      dup3\n        /* \"#utility.yul\":7032:7112   */\n      tag_52\n      jump\t// in\n    tag_139:\n        /* \"#utility.yul\":6691:7122   */\n      pop\n      pop\n        /* \"#utility.yul\":6676:7122   */\n    tag_135:\n        /* \"#utility.yul\":6586:7129   */\n      pop\n      pop\n      pop\n      jump\t// out\n        /* \"#utility.yul\":7135:7252   */\n    tag_54:\n        /* \"#utility.yul\":7189:7197   */\n      0x00\n        /* \"#utility.yul\":7239:7244   */\n      dup3\n        /* \"#utility.yul\":7233:7237   */\n      dup3\n        /* \"#utility.yul\":7229:7245   */\n      shr\n        /* \"#utility.yul\":7208:7245   */\n      swap1\n      pop\n        /* \"#utility.yul\":7135:7252   */\n      swap3\n      swap2\n      pop\n      pop\n      jump\t// out\n        /* \"#utility.yul\":7258:7427   */\n    tag_55:\n        /* \"#utility.yul\":7302:7308   */\n      0x00\n        /* \"#utility.yul\":7335:7386   */\n      tag_143\n        /* \"#utility.yul\":7383:7384   */\n      0x00\n        /* \"#utility.yul\":7379:7385   */\n      not\n        /* \"#utility.yul\":7371:7376   */\n      dup5\n        /* \"#utility.yul\":7368:7369   */\n      0x08\n        /* \"#utility.yul\":7364:7377   */\n      mul\n        /* \"#utility.yul\":7335:7386   */\n      tag_54\n      jump\t// in\n    tag_143:\n        /* \"#utility.yul\":7331:7387   */\n      not\n        /* \"#utility.yul\":7416:7420   */\n      dup1\n        /* \"#utility.yul\":7410:7414   */\n      dup4\n        /* \"#utility.yul\":7406:7421   */\n      and\n        /* \"#utility.yul\":7396:7421   */\n      swap2\n      pop\n        /* \"#utility.yul\":7309:7427   */\n      pop\n        /* \"#utility.yul\":7258:7427   */\n      swap3\n      swap2\n      pop\n      pop\n      jump\t// out\n        /* \"#utility.yul\":7432:7727   */\n    tag_56:\n        /* \"#utility.yul\":7508:7512   */\n      0x00\n        /* \"#utility.yul\":7654:7683   */\n      tag_145\n        /* \"#utility.yul\":7679:7682   */\n      dup4\n        /* \"#utility.yul\":7673:7677   */\n      dup4\n        /* \"#utility.yul\":7654:7683   */\n      tag_55\n      jump\t// in\n    tag_145:\n        /* \"#utility.yul\":7646:7683   */\n      swap2\n      pop\n        /* \"#utility.yul\":7716:7719   */\n      dup3\n        /* \"#utility.yul\":7713:7714   */\n      0x02\n        /* \"#utility.yul\":7709:7720   */\n      mul\n        /* \"#utility.yul\":7703:7707   */\n      dup3\n        /* \"#utility.yul\":7700:7721   */\n      or\n        /* \"#utility.yul\":7692:7721   */\n      swap1\n      pop\n        /* \"#utility.yul\":7432:7727   */\n      swap3\n      swap2\n      pop\n      pop\n      jump\t// out\n        /* \"#utility.yul\":7732:9127   */\n    tag_22:\n        /* \"#utility.yul\":7849:7886   */\n      tag_147\n        /* \"#utility.yul\":7882:7885   */\n      dup3\n        /* \"#utility.yul\":7849:7886   */\n      tag_23\n      jump\t// in\n    tag_147:\n        /* \"#utility.yul\":7951:7969   */\n      0xffffffffffffffff\n        /* \"#utility.yul\":7943:7949   */\n      dup2\n        /* \"#utility.yul\":7940:7970   */\n      gt\n        /* \"#utility.yul\":7937:7993   */\n      iszero\n      tag_148\n      jumpi\n        /* \"#utility.yul\":7973:7991   */\n      tag_149\n      tag_33\n      jump\t// in\n    tag_149:\n        /* \"#utility.yul\":7937:7993   */\n    tag_148:\n        /* \"#utility.yul\":8017:8055   */\n      tag_150\n        /* \"#utility.yul\":8049:8053   */\n      dup3\n        /* \"#utility.yul\":8043:8054   */\n      sload\n        /* \"#utility.yul\":8017:8055   */\n      tag_15\n      jump\t// in\n    tag_150:\n        /* \"#utility.yul\":8102:8169   */\n      tag_151\n        /* \"#utility.yul\":8162:8168   */\n      dup3\n        /* \"#utility.yul\":8154:8160   */\n      dup3\n        /* \"#utility.yul\":8148:8152   */\n      dup6\n        /* \"#utility.yul\":8102:8169   */\n      tag_53\n      jump\t// in\n    tag_151:\n        /* \"#utility.yul\":8196:8197   */\n      0x00\n        /* \"#utility.yul\":8220:8224   */\n      0x20\n        /* \"#utility.yul\":8207:8224   */\n      swap1\n      pop\n        /* \"#utility.yul\":8252:8254   */\n      0x1f\n        /* \"#utility.yul\":8244:8250   */\n      dup4\n        /* \"#utility.yul\":8241:8255   */\n      gt\n        /* \"#utility.yul\":8269:8270   */\n      0x01\n        /* \"#utility.yul\":8264:8882   */\n      dup2\n      eq\n      tag_153\n      jumpi\n        /* \"#utility.yul\":8926:8927   */\n      0x00\n        /* \"#utility.yul\":8943:8949   */\n      dup5\n        /* \"#utility.yul\":8940:9017   */\n      iszero\n      tag_154\n      jumpi\n        /* \"#utility.yul\":8992:9001   */\n      dup3\n        /* \"#utility.yul\":8987:8990   */\n      dup8\n        /* \"#utility.yul\":8983:9002   */\n      add\n        /* \"#utility.yul\":8977:9003   */\n      mload\n        /* \"#utility.yul\":8968:9003   */\n      swap1\n      pop\n        /* \"#utility.yul\":8940:9017   */\n    tag_154:\n        /* \"#utility.yul\":9043:9110   */\n      tag_155\n        /* \"#utility.yul\":9103:9109   */\n      dup6\n        /* \"#utility.yul\":9096:9101   */\n      dup3\n        /* \"#utility.yul\":9043:9110   */\n      tag_56\n      jump\t// in\n    tag_155:\n        /* \"#utility.yul\":9037:9041   */\n      dup7\n        /* \"#utility.yul\":9030:9111   */\n      sstore\n        /* \"#utility.yul\":8899:9121   */\n      pop\n        /* \"#utility.yul\":8234:9121   */\n      jump(tag_152)\n        /* \"#utility.yul\":8264:8882   */\n    tag_153:\n        /* \"#utility.yul\":8316:8320   */\n      0x1f\n        /* \"#utility.yul\":8312:8321   */\n      not\n        /* \"#utility.yul\":8304:8310   */\n      dup5\n        /* \"#utility.yul\":8300:8322   */\n      and\n        /* \"#utility.yul\":8350:8387   */\n      tag_156\n        /* \"#utility.yul\":8382:8386   */\n      dup7\n        /* \"#utility.yul\":8350:8387   */\n      tag_41\n      jump\t// in\n    tag_156:\n        /* \"#utility.yul\":8409:8410   */\n      0x00\n        /* \"#utility.yul\":8423:8631   */\n    tag_157:\n        /* \"#utility.yul\":8437:8444   */\n      dup3\n        /* \"#utility.yul\":8434:8435   */\n      dup2\n        /* \"#utility.yul\":8431:8445   */\n      lt\n        /* \"#utility.yul\":8423:8631   */\n      iszero\n      tag_159\n      jumpi\n        /* \"#utility.yul\":8516:8525   */\n      dup5\n        /* \"#utility.yul\":8511:8514   */\n      dup10\n        /* \"#utility.yul\":8507:8526   */\n      add\n        /* \"#utility.yul\":8501:8527   */\n      mload\n        /* \"#utility.yul\":8493:8499   */\n      dup3\n        /* \"#utility.yul\":8486:8528   */\n      sstore\n        /* \"#utility.yul\":8567:8568   */\n      0x01\n        /* \"#utility.yul\":8559:8565   */\n      dup3\n        /* \"#utility.yul\":8555:8569   */\n      add\n        /* \"#utility.yul\":8545:8569   */\n      swap2\n      pop\n        /* \"#utility.yul\":8614:8616   */\n      0x20\n        /* \"#utility.yul\":8603:8612   */\n      dup6\n        /* \"#utility.yul\":8599:8617   */\n      add\n        /* \"#utility.yul\":8586:8617   */\n      swap5\n      pop\n        /* \"#utility.yul\":8460:8464   */\n      0x20\n        /* \"#utility.yul\":8457:8458   */\n      dup2\n        /* \"#utility.yul\":8453:8465   */\n      add\n        /* \"#utility.yul\":8448:8465   */\n      swap1\n      pop\n        /* \"#utility.yul\":8423:8631   */\n      jump(tag_157)\n    tag_159:\n        /* \"#utility.yul\":8659:8665   */\n      dup7\n        /* \"#utility.yul\":8650:8657   */\n      dup4\n        /* \"#utility.yul\":8647:8666   */\n      lt\n        /* \"#utility.yul\":8644:8823   */\n      iszero\n      tag_160\n      jumpi\n        /* \"#utility.yul\":8717:8726   */\n      dup5\n        /* \"#utility.yul\":8712:8715   */\n      dup10\n        /* \"#utility.yul\":8708:8727   */\n      add\n        /* \"#utility.yul\":8702:8728   */\n      mload\n        /* \"#utility.yul\":8760:8808   */\n      tag_161\n        /* \"#utility.yul\":8802:8806   */\n      0x1f\n        /* \"#utility.yul\":8794:8800   */\n      dup10\n        /* \"#utility.yul\":8790:8807   */\n      and\n        /* \"#utility.yul\":8779:8788   */\n      dup3\n        /* \"#utility.yul\":8760:8808   */\n      tag_55\n      jump\t// in\n    tag_161:\n        /* \"#utility.yul\":8752:8758   */\n      dup4\n        /* \"#utility.yul\":8745:8809   */\n      sstore\n        /* \"#utility.yul\":8667:8823   */\n      pop\n        /* \"#utility.yul\":8644:8823   */\n    tag_160:\n        /* \"#utility.yul\":8869:8870   */\n      0x01\n        /* \"#utility.yul\":8865:8866   */\n      0x02\n        /* \"#utility.yul\":8857:8863   */\n      dup9\n        /* \"#utility.yul\":8853:8867   */\n      mul\n        /* \"#utility.yul\":8849:8871   */\n      add\n        /* \"#utility.yul\":8843:8847   */\n      dup9\n        /* \"#utility.yul\":8836:8872   */\n      sstore\n        /* \"#utility.yul\":8271:8882   */\n      pop\n      pop\n      pop\n        /* \"#utility.yul\":8234:9121   */\n    tag_152:\n      pop\n        /* \"#utility.yul\":7824:9127   */\n      pop\n      pop\n      pop\n        /* \"#utility.yul\":7732:9127   */\n      pop\n      pop\n      jump\t// out\n\n    auxdata: 0xa26469706673582212203837279f5dfd697d86a0ada171f2103ea08c05e6f5d0813751a2c5967fd5aedd64736f6c634300081f0033\n}\n",
				"bytecode": {
					"linkReferences": {},
					"object": "608060405234801561000f575f5ffd5b50604051610bd2380380610bd28339818101604052810190610031919061021b565b825f908161003f9190610497565b50816001819055508060025f6101000a81548160ff0219169083600181111561006b5761006a610566565b5b0217905550505050610593565b5f604051905090565b5f5ffd5b5f5ffd5b5f5ffd5b5f5ffd5b5f601f19601f8301169050919050565b7f4e487b71000000000000000000000000000000000000000000000000000000005f52604160045260245ffd5b6100d782610091565b810181811067ffffffffffffffff821117156100f6576100f56100a1565b5b80604052505050565b5f610108610078565b905061011482826100ce565b919050565b5f67ffffffffffffffff821115610133576101326100a1565b5b61013c82610091565b9050602081019050919050565b8281835e5f83830152505050565b5f61016961016484610119565b6100ff565b9050828152602081018484840111156101855761018461008d565b5b610190848285610149565b509392505050565b5f82601f8301126101ac576101ab610089565b5b81516101bc848260208601610157565b91505092915050565b5f819050919050565b6101d7816101c5565b81146101e1575f5ffd5b50565b5f815190506101f2816101ce565b92915050565b60028110610204575f5ffd5b50565b5f81519050610215816101f8565b92915050565b5f5f5f6060848603121561023257610231610081565b5b5f84015167ffffffffffffffff81111561024f5761024e610085565b5b61025b86828701610198565b935050602061026c868287016101e4565b925050604061027d86828701610207565b9150509250925092565b5f81519050919050565b7f4e487b71000000000000000000000000000000000000000000000000000000005f52602260045260245ffd5b5f60028204905060018216806102d557607f821691505b6020821081036102e8576102e7610291565b5b50919050565b5f819050815f5260205f209050919050565b5f6020601f8301049050919050565b5f82821b905092915050565b5f6008830261034a7fffffffffffffffffffffffffffffffffffffffffffffffffffffffffffffffff8261030f565b610354868361030f565b95508019841693508086168417925050509392505050565b5f819050919050565b5f819050919050565b5f61039861039361038e8461036c565b610375565b61036c565b9050919050565b5f819050919050565b6103b18361037e565b6103c56103bd8261039f565b84845461031b565b825550505050565b5f5f905090565b6103dc6103cd565b6103e78184846103a8565b505050565b5b8181101561040a576103ff5f826103d4565b6001810190506103ed565b5050565b601f82111561044f57610420816102ee565b61042984610300565b81016020851015610438578190505b61044c61044485610300565b8301826103ec565b50505b505050565b5f82821c905092915050565b5f61046f5f1984600802610454565b1980831691505092915050565b5f6104878383610460565b9150826002028217905092915050565b6104a082610287565b67ffffffffffffffff8111156104b9576104b86100a1565b5b6104c382546102be565b6104ce82828561040e565b5f60209050601f8311600181146104ff575f84156104ed578287015190505b6104f7858261047c565b86555061055e565b601f19841661050d866102ee565b5f5b828110156105345784890151825560018201915060208501945060208101905061050f565b86831015610551578489015161054d601f891682610460565b8355505b6001600288020188555050505b505050505050565b7f4e487b71000000000000000000000000000000000000000000000000000000005f52602160045260245ffd5b610632806105a05f395ff3fe608060405234801561000f575f5ffd5b5060043610610034575f3560e01c806317d7de7c14610038578063c47f002714610056575b5f5ffd5b610040610072565b60405161004d9190610183565b60405180910390f35b610070600480360381019061006b91906102e0565b610101565b005b60605f805461008090610354565b80601f01602080910402602001604051908101604052809291908181526020018280546100ac90610354565b80156100f75780601f106100ce576101008083540402835291602001916100f7565b820191905f5260205f20905b8154815290600101906020018083116100da57829003601f168201915b5050505050905090565b805f908161010f919061052d565b5050565b5f81519050919050565b5f82825260208201905092915050565b8281835e5f83830152505050565b5f601f19601f8301169050919050565b5f61015582610113565b61015f818561011d565b935061016f81856020860161012d565b6101788161013b565b840191505092915050565b5f6020820190508181035f83015261019b818461014b565b905092915050565b5f604051905090565b5f5ffd5b5f5ffd5b5f5ffd5b5f5ffd5b7f4e487b71000000000000000000000000000000000000000000000000000000005f52604160045260245ffd5b6101f28261013b565b810181811067ffffffffffffffff82111715610211576102106101bc565b5b80604052505050565b5f6102236101a3565b905061022f82826101e9565b919050565b5f67ffffffffffffffff82111561024e5761024d6101bc565b5b6102578261013b565b9050602081019050919050565b828183375f83830152505050565b5f61028461027f84610234565b61021a565b9050828152602081018484840111156102a05761029f6101b8565b5b6102ab848285610264565b509392505050565b5f82601f8301126102c7576102c66101b4565b5b81356102d7848260208601610272565b91505092915050565b5f602082840312156102f5576102f46101ac565b5b5f82013567ffffffffffffffff811115610312576103116101b0565b5b61031e848285016102b3565b91505092915050565b7f4e487b71000000000000000000000000000000000000000000000000000000005f52602260045260245ffd5b5f600282049050600182168061036b57607f821691505b60208210810361037e5761037d610327565b5b50919050565b5f819050815f5260205f209050919050565b5f6020601f8301049050919050565b5f82821b905092915050565b5f600883026103e07fffffffffffffffffffffffffffffffffffffffffffffffffffffffffffffffff826103a5565b6103ea86836103a5565b95508019841693508086168417925050509392505050565b5f819050919050565b5f819050919050565b5f61042e61042961042484610402565b61040b565b610402565b9050919050565b5f819050919050565b61044783610414565b61045b61045382610435565b8484546103b1565b825550505050565b5f5f905090565b610472610463565b61047d81848461043e565b505050565b5b818110156104a0576104955f8261046a565b600181019050610483565b5050565b601f8211156104e5576104b681610384565b6104bf84610396565b810160208510156104ce578190505b6104e26104da85610396565b830182610482565b50505b505050565b5f82821c905092915050565b5f6105055f19846008026104ea565b1980831691505092915050565b5f61051d83836104f6565b9150826002028217905092915050565b61053682610113565b67ffffffffffffffff81111561054f5761054e6101bc565b5b6105598254610354565b6105648282856104a4565b5f60209050601f831160018114610595575f8415610583578287015190505b61058d8582610512565b8655506105f4565b601f1984166105a386610384565b5f5b828110156105ca578489015182556001820191506020850194506020810190506105a5565b868310156105e757848901516105e3601f8916826104f6565b8355505b6001600288020188555050505b50505050505056fea26469706673582212203837279f5dfd697d86a0ada171f2103ea08c05e6f5d0813751a2c5967fd5aedd64736f6c634300081f0033",
					"opcodes": "PUSH1 0x80 PUSH1 0x40 MSTORE CALLVALUE DUP1 ISZERO PUSH2 0xF JUMPI PUSH0 PUSH0 REVERT JUMPDEST POP PUSH1 0x40 MLOAD PUSH2 0xBD2 CODESIZE SUB DUP1 PUSH2 0xBD2 DUP4 CODECOPY DUP2 DUP2 ADD PUSH1 0x40 MSTORE DUP2 ADD SWAP1 PUSH2 0x31 SWAP2 SWAP1 PUSH2 0x21B JUMP JUMPDEST DUP3 PUSH0 SWAP1 DUP2 PUSH2 0x3F SWAP2 SWAP1 PUSH2 0x497 JUMP JUMPDEST POP DUP2 PUSH1 0x1 DUP2 SWAP1 SSTORE POP DUP1 PUSH1 0x2 PUSH0 PUSH2 0x100 EXP DUP2 SLOAD DUP2 PUSH1 0xFF MUL NOT AND SWAP1 DUP4 PUSH1 0x1 DUP2 GT ISZERO PUSH2 0x6B JUMPI PUSH2 0x6A PUSH2 0x566 JUMP JUMPDEST JUMPDEST MUL OR SWAP1 SSTORE POP POP POP POP PUSH2 0x593 JUMP JUMPDEST PUSH0 PUSH1 0x40 MLOAD SWAP1 POP SWAP1 JUMP JUMPDEST PUSH0 PUSH0 REVERT JUMPDEST PUSH0 PUSH0 REVERT JUMPDEST PUSH0 PUSH0 REVERT JUMPDEST PUSH0 PUSH0 REVERT JUMPDEST PUSH0 PUSH1 0x1F NOT PUSH1 0x1F DUP4 ADD AND SWAP1 POP SWAP2 SWAP1 POP JUMP JUMPDEST PUSH32 0x4E487B7100000000000000000000000000000000000000000000000000000000 PUSH0 MSTORE PUSH1 0x41 PUSH1 0x4 MSTORE PUSH1 0x24 PUSH0 REVERT JUMPDEST PUSH2 0xD7 DUP3 PUSH2 0x91 JUMP JUMPDEST DUP2 ADD DUP2 DUP2 LT PUSH8 0xFFFFFFFFFFFFFFFF DUP3 GT OR ISZERO PUSH2 0xF6 JUMPI PUSH2 0xF5 PUSH2 0xA1 JUMP JUMPDEST JUMPDEST DUP1 PUSH1 0x40 MSTORE POP POP POP JUMP JUMPDEST PUSH0 PUSH2 0x108 PUSH2 0x78 JUMP JUMPDEST SWAP1 POP PUSH2 0x114 DUP3 DUP3 PUSH2 0xCE JUMP JUMPDEST SWAP2 SWAP1 POP JUMP JUMPDEST PUSH0 PUSH8 0xFFFFFFFFFFFFFFFF DUP3 GT ISZERO PUSH2 0x133 JUMPI PUSH2 0x132 PUSH2 0xA1 JUMP JUMPDEST JUMPDEST PUSH2 0x13C DUP3 PUSH2 0x91 JUMP JUMPDEST SWAP1 POP PUSH1 0x20 DUP2 ADD SWAP1 POP SWAP2 SWAP1 POP JUMP JUMPDEST DUP3 DUP2 DUP4 MCOPY PUSH0 DUP4 DUP4 ADD MSTORE POP POP POP JUMP JUMPDEST PUSH0 PUSH2 0x169 PUSH2 0x164 DUP5 PUSH2 0x119 JUMP JUMPDEST PUSH2 0xFF JUMP JUMPDEST SWAP1 POP DUP3 DUP2 MSTORE PUSH1 0x20 DUP2 ADD DUP5 DUP5 DUP5 ADD GT ISZERO PUSH2 0x185 JUMPI PUSH2 0x184 PUSH2 0x8D JUMP JUMPDEST JUMPDEST PUSH2 0x190 DUP5 DUP3 DUP6 PUSH2 0x149 JUMP JUMPDEST POP SWAP4 SWAP3 POP POP POP JUMP JUMPDEST PUSH0 DUP3 PUSH1 0x1F DUP4 ADD SLT PUSH2 0x1AC JUMPI PUSH2 0x1AB PUSH2 0x89 JUMP JUMPDEST JUMPDEST DUP2 MLOAD PUSH2 0x1BC DUP5 DUP3 PUSH1 0x20 DUP7 ADD PUSH2 0x157 JUMP JUMPDEST SWAP2 POP POP SWAP3 SWAP2 POP POP JUMP JUMPDEST PUSH0 DUP2 SWAP1 POP SWAP2 SWAP1 POP JUMP JUMPDEST PUSH2 0x1D7 DUP2 PUSH2 0x1C5 JUMP JUMPDEST DUP2 EQ PUSH2 0x1E1 JUMPI PUSH0 PUSH0 REVERT JUMPDEST POP JUMP JUMPDEST PUSH0 DUP2 MLOAD SWAP1 POP PUSH2 0x1F2 DUP2 PUSH2 0x1CE JUMP JUMPDEST SWAP3 SWAP2 POP POP JUMP JUMPDEST PUSH1 0x2 DUP2 LT PUSH2 0x204 JUMPI PUSH0 PUSH0 REVERT JUMPDEST POP JUMP JUMPDEST PUSH0 DUP2 MLOAD SWAP1 POP PUSH2 0x215 DUP2 PUSH2 0x1F8 JUMP JUMPDEST SWAP3 SWAP2 POP POP JUMP JUMPDEST PUSH0 PUSH0 PUSH0 PUSH1 0x60 DUP5 DUP7 SUB SLT ISZERO PUSH2 0x232 JUMPI PUSH2 0x231 PUSH2 0x81 JUMP JUMPDEST JUMPDEST PUSH0 DUP5 ADD MLOAD PUSH8 0xFFFFFFFFFFFFFFFF DUP2 GT ISZERO PUSH2 0x24F JUMPI PUSH2 0x24E PUSH2 0x85 JUMP JUMPDEST JUMPDEST PUSH2 0x25B DUP7 DUP3 DUP8 ADD PUSH2 0x198 JUMP JUMPDEST SWAP4 POP POP PUSH1 0x20 PUSH2 0x26C DUP7 DUP3 DUP8 ADD PUSH2 0x1E4 JUMP JUMPDEST SWAP3 POP POP PUSH1 0x40 PUSH2 0x27D DUP7 DUP3 DUP8 ADD PUSH2 0x207 JUMP JUMPDEST SWAP2 POP POP SWAP3 POP SWAP3 POP SWAP3 JUMP JUMPDEST PUSH0 DUP2 MLOAD SWAP1 POP SWAP2 SWAP1 POP JUMP JUMPDEST PUSH32 0x4E487B7100000000000000000000000000000000000000000000000000000000 PUSH0 MSTORE PUSH1 0x22 PUSH1 0x4 MSTORE PUSH1 0x24 PUSH0 REVERT JUMPDEST PUSH0 PUSH1 0x2 DUP3 DIV SWAP1 POP PUSH1 0x1 DUP3 AND DUP1 PUSH2 0x2D5 JUMPI PUSH1 0x7F DUP3 AND SWAP2 POP JUMPDEST PUSH1 0x20 DUP3 LT DUP2 SUB PUSH2 0x2E8 JUMPI PUSH2 0x2E7 PUSH2 0x291 JUMP JUMPDEST JUMPDEST POP SWAP2 SWAP1 POP JUMP JUMPDEST PUSH0 DUP2 SWAP1 POP DUP2 PUSH0 MSTORE PUSH1 0x20 PUSH0 KECCAK256 SWAP1 POP SWAP2 SWAP1 POP JUMP JUMPDEST PUSH0 PUSH1 0x20 PUSH1 0x1F DUP4 ADD DIV SWAP1 POP SWAP2 SWAP1 POP JUMP JUMPDEST PUSH0 DUP3 DUP3 SHL SWAP1 POP SWAP3 SWAP2 POP POP JUMP JUMPDEST PUSH0 PUSH1 0x8 DUP4 MUL PUSH2 0x34A PUSH32 0xFFFFFFFFFFFFFFFFFFFFFFFFFFFFFFFFFFFFFFFFFFFFFFFFFFFFFFFFFFFFFFFF DUP3 PUSH2 0x30F JUMP JUMPDEST PUSH2 0x354 DUP7 DUP4 PUSH2 0x30F JUMP JUMPDEST SWAP6 POP DUP1 NOT DUP5 AND SWAP4 POP DUP1 DUP7 AND DUP5 OR SWAP3 POP POP POP SWAP4 SWAP3 POP POP POP JUMP JUMPDEST PUSH0 DUP2 SWAP1 POP SWAP2 SWAP1 POP JUMP JUMPDEST PUSH0 DUP2 SWAP1 POP SWAP2 SWAP1 POP JUMP JUMPDEST PUSH0 PUSH2 0x398 PUSH2 0x393 PUSH2 0x38E DUP5 PUSH2 0x36C JUMP JUMPDEST PUSH2 0x375 JUMP JUMPDEST PUSH2 0x36C JUMP JUMPDEST SWAP1 POP SWAP2 SWAP1 POP JUMP JUMPDEST PUSH0 DUP2 SWAP1 POP SWAP2 SWAP1 POP JUMP JUMPDEST PUSH2 0x3B1 DUP4 PUSH2 0x37E JUMP JUMPDEST PUSH2 0x3C5 PUSH2 0x3BD DUP3 PUSH2 0x39F JUMP JUMPDEST DUP5 DUP5 SLOAD PUSH2 0x31B JUMP JUMPDEST DUP3 SSTORE POP POP POP POP JUMP JUMPDEST PUSH0 PUSH0 SWAP1 POP SWAP1 JUMP JUMPDEST PUSH2 0x3DC PUSH2 0x3CD JUMP JUMPDEST PUSH2 0x3E7 DUP2 DUP5 DUP5 PUSH2 0x3A8 JUMP JUMPDEST POP POP POP JUMP JUMPDEST JUMPDEST DUP2 DUP2 LT ISZERO PUSH2 0x40A JUMPI PUSH2 0x3FF PUSH0 DUP3 PUSH2 0x3D4 JUMP JUMPDEST PUSH1 0x1 DUP2 ADD SWAP1 POP PUSH2 0x3ED JUMP JUMPDEST POP POP JUMP JUMPDEST PUSH1 0x1F DUP3 GT ISZERO PUSH2 0x44F JUMPI PUSH2 0x420 DUP2 PUSH2 0x2EE JUMP JUMPDEST PUSH2 0x429 DUP5 PUSH2 0x300 JUMP JUMPDEST DUP2 ADD PUSH1 0x20 DUP6 LT ISZERO PUSH2 0x438 JUMPI DUP2 SWAP1 POP JUMPDEST PUSH2 0x44C PUSH2 0x444 DUP6 PUSH2 0x300 JUMP JUMPDEST DUP4 ADD DUP3 PUSH2 0x3EC JUMP JUMPDEST POP POP JUMPDEST POP POP POP JUMP JUMPDEST PUSH0 DUP3 DUP3 SHR SWAP1 POP SWAP3 SWAP2 POP POP JUMP JUMPDEST PUSH0 PUSH2 0x46F PUSH0 NOT DUP5 PUSH1 0x8 MUL PUSH2 0x454 JUMP JUMPDEST NOT DUP1 DUP4 AND SWAP2 POP POP SWAP3 SWAP2 POP POP JUMP JUMPDEST PUSH0 PUSH2 0x487 DUP4 DUP4 PUSH2 0x460 JUMP JUMPDEST SWAP2 POP DUP3 PUSH1 0x2 MUL DUP3 OR SWAP1 POP SWAP3 SWAP2 POP POP JUMP JUMPDEST PUSH2 0x4A0 DUP3 PUSH2 0x287 JUMP JUMPDEST PUSH8 0xFFFFFFFFFFFFFFFF DUP2 GT ISZERO PUSH2 0x4B9 JUMPI PUSH2 0x4B8 PUSH2 0xA1 JUMP JUMPDEST JUMPDEST PUSH2 0x4C3 DUP3 SLOAD PUSH2 0x2BE JUMP JUMPDEST PUSH2 0x4CE DUP3 DUP3 DUP6 PUSH2 0x40E JUMP JUMPDEST PUSH0 PUSH1 0x20 SWAP1 POP PUSH1 0x1F DUP4 GT PUSH1 0x1 DUP2 EQ PUSH2 0x4FF JUMPI PUSH0 DUP5 ISZERO PUSH2 0x4ED JUMPI DUP3 DUP8 ADD MLOAD SWAP1 POP JUMPDEST PUSH2 0x4F7 DUP6 DUP3 PUSH2 0x47C JUMP JUMPDEST DUP7 SSTORE POP PUSH2 0x55E JUMP JUMPDEST PUSH1 0x1F NOT DUP5 AND PUSH2 0x50D DUP7 PUSH2 0x2EE JUMP JUMPDEST PUSH0 JUMPDEST DUP3 DUP2 LT ISZERO PUSH2 0x534 JUMPI DUP5 DUP10 ADD MLOAD DUP3 SSTORE PUSH1 0x1 DUP3 ADD SWAP2 POP PUSH1 0x20 DUP6 ADD SWAP5 POP PUSH1 0x20 DUP2 ADD SWAP1 POP PUSH2 0x50F JUMP JUMPDEST DUP7 DUP4 LT ISZERO PUSH2 0x551 JUMPI DUP5 DUP10 ADD MLOAD PUSH2 0x54D PUSH1 0x1F DUP10 AND DUP3 PUSH2 0x460 JUMP JUMPDEST DUP4 SSTORE POP JUMPDEST PUSH1 0x1 PUSH1 0x2 DUP9 MUL ADD DUP9 SSTORE POP POP POP JUMPDEST POP POP POP POP POP POP JUMP JUMPDEST PUSH32 0x4E487B7100000000000000000000000000000000000000000000000000000000 PUSH0 MSTORE PUSH1 0x21 PUSH1 0x4 MSTORE PUSH1 0x24 PUSH0 REVERT JUMPDEST PUSH2 0x632 DUP1 PUSH2 0x5A0 PUSH0 CODECOPY PUSH0 RETURN INVALID PUSH1 0x80 PUSH1 0x40 MSTORE CALLVALUE DUP1 ISZERO PUSH2 0xF JUMPI PUSH0 PUSH0 REVERT JUMPDEST POP PUSH1 0x4 CALLDATASIZE LT PUSH2 0x34 JUMPI PUSH0 CALLDATALOAD PUSH1 0xE0 SHR DUP1 PUSH4 0x17D7DE7C EQ PUSH2 0x38 JUMPI DUP1 PUSH4 0xC47F0027 EQ PUSH2 0x56 JUMPI JUMPDEST PUSH0 PUSH0 REVERT JUMPDEST PUSH2 0x40 PUSH2 0x72 JUMP JUMPDEST PUSH1 0x40 MLOAD PUSH2 0x4D SWAP2 SWAP1 PUSH2 0x183 JUMP JUMPDEST PUSH1 0x40 MLOAD DUP1 SWAP2 SUB SWAP1 RETURN JUMPDEST PUSH2 0x70 PUSH1 0x4 DUP1 CALLDATASIZE SUB DUP2 ADD SWAP1 PUSH2 0x6B SWAP2 SWAP1 PUSH2 0x2E0 JUMP JUMPDEST PUSH2 0x101 JUMP JUMPDEST STOP JUMPDEST PUSH1 0x60 PUSH0 DUP1 SLOAD PUSH2 0x80 SWAP1 PUSH2 0x354 JUMP JUMPDEST DUP1 PUSH1 0x1F ADD PUSH1 0x20 DUP1 SWAP2 DIV MUL PUSH1 0x20 ADD PUSH1 0x40 MLOAD SWAP1 DUP2 ADD PUSH1 0x40 MSTORE DUP1 SWAP3 SWAP2 SWAP1 DUP2 DUP2 MSTORE PUSH1 0x20 ADD DUP3 DUP1 SLOAD PUSH2 0xAC SWAP1 PUSH2 0x354 JUMP JUMPDEST DUP1 ISZERO PUSH2 0xF7 JUMPI DUP1 PUSH1 0x1F LT PUSH2 0xCE JUMPI PUSH2 0x100 DUP1 DUP4 SLOAD DIV MUL DUP4 MSTORE SWAP2 PUSH1 0x20 ADD SWAP2 PUSH2 0xF7 JUMP JUMPDEST DUP3 ADD SWAP2 SWAP1 PUSH0 MSTORE PUSH1 0x20 PUSH0 KECCAK256 SWAP1 JUMPDEST DUP2 SLOAD DUP2 MSTORE SWAP1 PUSH1 0x1 ADD SWAP1 PUSH1 0x20 ADD DUP1 DUP4 GT PUSH2 0xDA JUMPI DUP3 SWAP1 SUB PUSH1 0x1F AND DUP3 ADD SWAP2 JUMPDEST POP POP POP POP POP SWAP1 POP SWAP1 JUMP JUMPDEST DUP1 PUSH0 SWAP1 DUP2 PUSH2 0x10F SWAP2 SWAP1 PUSH2 0x52D JUMP JUMPDEST POP POP JUMP JUMPDEST PUSH0 DUP2 MLOAD SWAP1 POP SWAP2 SWAP1 POP JUMP JUMPDEST PUSH0 DUP3 DUP3 MSTORE PUSH1 0x20 DUP3 ADD SWAP1 POP SWAP3 SWAP2 POP POP JUMP JUMPDEST DUP3 DUP2 DUP4 MCOPY PUSH0 DUP4 DUP4 ADD MSTORE POP POP POP JUMP JUMPDEST PUSH0 PUSH1 0x1F NOT PUSH1 0x1F DUP4 ADD AND SWAP1 POP SWAP2 SWAP1 POP JUMP JUMPDEST PUSH0 PUSH2 0x155 DUP3 PUSH2 0x113 JUMP JUMPDEST PUSH2 0x15F DUP2 DUP6 PUSH2 0x11D JUMP JUMPDEST SWAP4 POP PUSH2 0x16F DUP2 DUP6 PUSH1 0x20 DUP7 ADD PUSH2 0x12D JUMP JUMPDEST PUSH2 0x178 DUP2 PUSH2 0x13B JUMP JUMPDEST DUP5 ADD SWAP2 POP POP SWAP3 SWAP2 POP POP JUMP JUMPDEST PUSH0 PUSH1 0x20 DUP3 ADD SWAP1 POP DUP2 DUP2 SUB PUSH0 DUP4 ADD MSTORE PUSH2 0x19B DUP2 DUP5 PUSH2 0x14B JUMP JUMPDEST SWAP1 POP SWAP3 SWAP2 POP POP JUMP JUMPDEST PUSH0 PUSH1 0x40 MLOAD SWAP1 POP SWAP1 JUMP JUMPDEST PUSH0 PUSH0 REVERT JUMPDEST PUSH0 PUSH0 REVERT JUMPDEST PUSH0 PUSH0 REVERT JUMPDEST PUSH0 PUSH0 REVERT JUMPDEST PUSH32 0x4E487B7100000000000000000000000000000000000000000000000000000000 PUSH0 MSTORE PUSH1 0x41 PUSH1 0x4 MSTORE PUSH1 0x24 PUSH0 REVERT JUMPDEST PUSH2 0x1F2 DUP3 PUSH2 0x13B JUMP JUMPDEST DUP2 ADD DUP2 DUP2 LT PUSH8 0xFFFFFFFFFFFFFFFF DUP3 GT OR ISZERO PUSH2 0x211 JUMPI PUSH2 0x210 PUSH2 0x1BC JUMP JUMPDEST JUMPDEST DUP1 PUSH1 0x40 MSTORE POP POP POP JUMP JUMPDEST PUSH0 PUSH2 0x223 PUSH2 0x1A3 JUMP JUMPDEST SWAP1 POP PUSH2 0x22F DUP3 DUP3 PUSH2 0x1E9 JUMP JUMPDEST SWAP2 SWAP1 POP JUMP JUMPDEST PUSH0 PUSH8 0xFFFFFFFFFFFFFFFF DUP3 GT ISZERO PUSH2 0x24E JUMPI PUSH2 0x24D PUSH2 0x1BC JUMP JUMPDEST JUMPDEST PUSH2 0x257 DUP3 PUSH2 0x13B JUMP JUMPDEST SWAP1 POP PUSH1 0x20 DUP2 ADD SWAP1 POP SWAP2 SWAP1 POP JUMP JUMPDEST DUP3 DUP2 DUP4 CALLDATACOPY PUSH0 DUP4 DUP4 ADD MSTORE POP POP POP JUMP JUMPDEST PUSH0 PUSH2 0x284 PUSH2 0x27F DUP5 PUSH2 0x234 JUMP JUMPDEST PUSH2 0x21A JUMP JUMPDEST SWAP1 POP DUP3 DUP2 MSTORE PUSH1 0x20 DUP2 ADD DUP5 DUP5 DUP5 ADD GT ISZERO PUSH2 0x2A0 JUMPI PUSH2 0x29F PUSH2 0x1B8 JUMP JUMPDEST JUMPDEST PUSH2 0x2AB DUP5 DUP3 DUP6 PUSH2 0x264 JUMP JUMPDEST POP SWAP4 SWAP3 POP POP POP JUMP JUMPDEST PUSH0 DUP3 PUSH1 0x1F DUP4 ADD SLT PUSH2 0x2C7 JUMPI PUSH2 0x2C6 PUSH2 0x1B4 JUMP JUMPDEST JUMPDEST DUP2 CALLDATALOAD PUSH2 0x2D7 DUP5 DUP3 PUSH1 0x20 DUP7 ADD PUSH2 0x272 JUMP JUMPDEST SWAP2 POP POP SWAP3 SWAP2 POP POP JUMP JUMPDEST PUSH0 PUSH1 0x20 DUP3 DUP5 SUB SLT ISZERO PUSH2 0x2F5 JUMPI PUSH2 0x2F4 PUSH2 0x1AC JUMP JUMPDEST JUMPDEST PUSH0 DUP3 ADD CALLDATALOAD PUSH8 0xFFFFFFFFFFFFFFFF DUP2 GT ISZERO PUSH2 0x312 JUMPI PUSH2 0x311 PUSH2 0x1B0 JUMP JUMPDEST JUMPDEST PUSH2 0x31E DUP5 DUP3 DUP6 ADD PUSH2 0x2B3 JUMP JUMPDEST SWAP2 POP POP SWAP3 SWAP2 POP POP JUMP JUMPDEST PUSH32 0x4E487B7100000000000000000000000000000000000000000000000000000000 PUSH0 MSTORE PUSH1 0x22 PUSH1 0x4 MSTORE PUSH1 0x24 PUSH0 REVERT JUMPDEST PUSH0 PUSH1 0x2 DUP3 DIV SWAP1 POP PUSH1 0x1 DUP3 AND DUP1 PUSH2 0x36B JUMPI PUSH1 0x7F DUP3 AND SWAP2 POP JUMPDEST PUSH1 0x20 DUP3 LT DUP2 SUB PUSH2 0x37E JUMPI PUSH2 0x37D PUSH2 0x327 JUMP JUMPDEST JUMPDEST POP SWAP2 SWAP1 POP JUMP JUMPDEST PUSH0 DUP2 SWAP1 POP DUP2 PUSH0 MSTORE PUSH1 0x20 PUSH0 KECCAK256 SWAP1 POP SWAP2 SWAP1 POP JUMP JUMPDEST PUSH0 PUSH1 0x20 PUSH1 0x1F DUP4 ADD DIV SWAP1 POP SWAP2 SWAP1 POP JUMP JUMPDEST PUSH0 DUP3 DUP3 SHL SWAP1 POP SWAP3 SWAP2 POP POP JUMP JUMPDEST PUSH0 PUSH1 0x8 DUP4 MUL PUSH2 0x3E0 PUSH32 0xFFFFFFFFFFFFFFFFFFFFFFFFFFFFFFFFFFFFFFFFFFFFFFFFFFFFFFFFFFFFFFFF DUP3 PUSH2 0x3A5 JUMP JUMPDEST PUSH2 0x3EA DUP7 DUP4 PUSH2 0x3A5 JUMP JUMPDEST SWAP6 POP DUP1 NOT DUP5 AND SWAP4 POP DUP1 DUP7 AND DUP5 OR SWAP3 POP POP POP SWAP4 SWAP3 POP POP POP JUMP JUMPDEST PUSH0 DUP2 SWAP1 POP SWAP2 SWAP1 POP JUMP JUMPDEST PUSH0 DUP2 SWAP1 POP SWAP2 SWAP1 POP JUMP JUMPDEST PUSH0 PUSH2 0x42E PUSH2 0x429 PUSH2 0x424 DUP5 PUSH2 0x402 JUMP JUMPDEST PUSH2 0x40B JUMP JUMPDEST PUSH2 0x402 JUMP JUMPDEST SWAP1 POP SWAP2 SWAP1 POP JUMP JUMPDEST PUSH0 DUP2 SWAP1 POP SWAP2 SWAP1 POP JUMP JUMPDEST PUSH2 0x447 DUP4 PUSH2 0x414 JUMP JUMPDEST PUSH2 0x45B PUSH2 0x453 DUP3 PUSH2 0x435 JUMP JUMPDEST DUP5 DUP5 SLOAD PUSH2 0x3B1 JUMP JUMPDEST DUP3 SSTORE POP POP POP POP JUMP JUMPDEST PUSH0 PUSH0 SWAP1 POP SWAP1 JUMP JUMPDEST PUSH2 0x472 PUSH2 0x463 JUMP JUMPDEST PUSH2 0x47D DUP2 DUP5 DUP5 PUSH2 0x43E JUMP JUMPDEST POP POP POP JUMP JUMPDEST JUMPDEST DUP2 DUP2 LT ISZERO PUSH2 0x4A0 JUMPI PUSH2 0x495 PUSH0 DUP3 PUSH2 0x46A JUMP JUMPDEST PUSH1 0x1 DUP2 ADD SWAP1 POP PUSH2 0x483 JUMP JUMPDEST POP POP JUMP JUMPDEST PUSH1 0x1F DUP3 GT ISZERO PUSH2 0x4E5 JUMPI PUSH2 0x4B6 DUP2 PUSH2 0x384 JUMP JUMPDEST PUSH2 0x4BF DUP5 PUSH2 0x396 JUMP JUMPDEST DUP2 ADD PUSH1 0x20 DUP6 LT ISZERO PUSH2 0x4CE JUMPI DUP2 SWAP1 POP JUMPDEST PUSH2 0x4E2 PUSH2 0x4DA DUP6 PUSH2 0x396 JUMP JUMPDEST DUP4 ADD DUP3 PUSH2 0x482 JUMP JUMPDEST POP POP JUMPDEST POP POP POP JUMP JUMPDEST PUSH0 DUP3 DUP3 SHR SWAP1 POP SWAP3 SWAP2 POP POP JUMP JUMPDEST PUSH0 PUSH2 0x505 PUSH0 NOT DUP5 PUSH1 0x8 MUL PUSH2 0x4EA JUMP JUMPDEST NOT DUP1 DUP4 AND SWAP2 POP POP SWAP3 SWAP2 POP POP JUMP JUMPDEST PUSH0 PUSH2 0x51D DUP4 DUP4 PUSH2 0x4F6 JUMP JUMPDEST SWAP2 POP DUP3 PUSH1 0x2 MUL DUP3 OR SWAP1 POP SWAP3 SWAP2 POP POP JUMP JUMPDEST PUSH2 0x536 DUP3 PUSH2 0x113 JUMP JUMPDEST PUSH8 0xFFFFFFFFFFFFFFFF DUP2 GT ISZERO PUSH2 0x54F JUMPI PUSH2 0x54E PUSH2 0x1BC JUMP JUMPDEST JUMPDEST PUSH2 0x559 DUP3 SLOAD PUSH2 0x354 JUMP JUMPDEST PUSH2 0x564 DUP3 DUP3 DUP6 PUSH2 0x4A4 JUMP JUMPDEST PUSH0 PUSH1 0x20 SWAP1 POP PUSH1 0x1F DUP4 GT PUSH1 0x1 DUP2 EQ PUSH2 0x595 JUMPI PUSH0 DUP5 ISZERO PUSH2 0x583 JUMPI DUP3 DUP8 ADD MLOAD SWAP1 POP JUMPDEST PUSH2 0x58D DUP6 DUP3 PUSH2 0x512 JUMP JUMPDEST DUP7 SSTORE POP PUSH2 0x5F4 JUMP JUMPDEST PUSH1 0x1F NOT DUP5 AND PUSH2 0x5A3 DUP7 PUSH2 0x384 JUMP JUMPDEST PUSH0 JUMPDEST DUP3 DUP2 LT ISZERO PUSH2 0x5CA JUMPI DUP5 DUP10 ADD MLOAD DUP3 SSTORE PUSH1 0x1 DUP3 ADD SWAP2 POP PUSH1 0x20 DUP6 ADD SWAP5 POP PUSH1 0x20 DUP2 ADD SWAP1 POP PUSH2 0x5A5 JUMP JUMPDEST DUP7 DUP4 LT ISZERO PUSH2 0x5E7 JUMPI DUP5 DUP10 ADD MLOAD PUSH2 0x5E3 PUSH1 0x1F DUP10 AND DUP3 PUSH2 0x4F6 JUMP JUMPDEST DUP4 SSTORE POP JUMPDEST PUSH1 0x1 PUSH1 0x2 DUP9 MUL ADD DUP9 SSTORE POP POP POP JUMPDEST POP POP POP POP POP POP JUMP INVALID LOG2 PUSH5 0x6970667358 0x22 SLT KECCAK256 CODESIZE CALLDATACOPY 0x27 SWAP16 TSTORE REVERT PUSH10 0x7D86A0ADA171F2103EA0 DUP13 SDIV DUPN 0xF5 0xD0 DUP2 CALLDATACOPY MLOAD LOG2 0xC5 SWAP7 PUSH32 0xD5AEDD64736F6C634300081F0033000000000000000000000000000000000000 "
				},
				"gasEstimates": {
					"creation": {
						"codeDepositCost": "317200",
						"executionCost": "infinite",
						"totalCost": "infinite"
					},
					"external": {
						"getName()": "infinite",
						"setName(string)": "infinite"
					}
				},
				"methodIdentifiers": {
					"getName()": "17d7de7c",
					"setName(string)": "c47f0027"
				}
			},
			"storageLayout": {
				"storage": [
					{
						"astId": 6,
						"contract": "contracts/contract.sol:sample",
						"label": "Name",
						"offset": 0,
						"slot": "0",
						"type": "t_string_storage"
					},
					{
						"astId": 8,
						"contract": "contracts/contract.sol:sample",
						"label": "Age",
						"offset": 0,
						"slot": "1",
						"type": "t_int256"
					},
					{
						"astId": 11,
						"contract": "contracts/contract.sol:sample",
						"label": "Gender",
						"offset": 0,
						"slot": "2",
						"type": "t_enum(GenderPerson)4"
					}
				],
				"types": {
					"t_enum(GenderPerson)4": {
						"encoding": "inplace",
						"label": "enum sample.GenderPerson",
						"numberOfBytes": "1"
					},
					"t_int256": {
						"encoding": "inplace",
						"label": "int256",
						"numberOfBytes": "32"
					},
					"t_string_storage": {
						"encoding": "bytes",
						"label": "string",
						"numberOfBytes": "32"
					}
				}
			},
			"userdoc": {
				"kind": "user",
				"methods": {},
				"version": 1
			}
		}
	}
}